{
  "contractName": "Manufacturing",
  "abi": [
    {
      "inputs": [],
      "payable": false,
      "stateMutability": "nonpayable",
      "type": "constructor"
    },
    {
      "constant": true,
      "inputs": [
        {
          "internalType": "string",
          "name": "",
          "type": "string"
        }
      ],
      "name": "materials",
      "outputs": [
        {
          "internalType": "uint256",
          "name": "",
          "type": "uint256"
        }
      ],
      "payable": false,
      "stateMutability": "view",
      "type": "function"
    },
    {
      "constant": false,
      "inputs": [],
      "name": "doors",
      "outputs": [
        {
          "internalType": "uint256",
          "name": "numDoors",
          "type": "uint256"
        }
      ],
      "payable": false,
      "stateMutability": "nonpayable",
      "type": "function"
    },
    {
      "constant": false,
      "inputs": [],
      "name": "frames",
      "outputs": [
        {
          "internalType": "uint256",
          "name": "numFrames",
          "type": "uint256"
        }
      ],
      "payable": false,
      "stateMutability": "nonpayable",
      "type": "function"
    },
    {
      "constant": false,
      "inputs": [],
      "name": "buttons",
      "outputs": [
        {
          "internalType": "uint256",
          "name": "numButtons",
          "type": "uint256"
        }
      ],
      "payable": false,
      "stateMutability": "nonpayable",
      "type": "function"
    },
    {
      "constant": false,
      "inputs": [],
      "name": "display",
      "outputs": [
        {
          "internalType": "uint256",
          "name": "numDisplay",
          "type": "uint256"
        }
      ],
      "payable": false,
      "stateMutability": "nonpayable",
      "type": "function"
    },
    {
      "constant": false,
      "inputs": [],
      "name": "batteries",
      "outputs": [
        {
          "internalType": "uint256",
          "name": "numBattery",
          "type": "uint256"
        }
      ],
      "payable": false,
      "stateMutability": "nonpayable",
      "type": "function"
    },
    {
      "constant": false,
      "inputs": [],
      "name": "getDoors",
      "outputs": [],
      "payable": false,
      "stateMutability": "nonpayable",
      "type": "function"
    },
    {
      "constant": false,
      "inputs": [],
      "name": "getFrames",
      "outputs": [],
      "payable": false,
      "stateMutability": "nonpayable",
      "type": "function"
    },
    {
      "constant": false,
      "inputs": [],
      "name": "getButtons",
      "outputs": [],
      "payable": false,
      "stateMutability": "nonpayable",
      "type": "function"
    },
    {
      "constant": false,
      "inputs": [],
      "name": "getDisplay",
      "outputs": [],
      "payable": false,
      "stateMutability": "nonpayable",
      "type": "function"
    },
    {
      "constant": false,
      "inputs": [],
      "name": "getBatteries",
      "outputs": [],
      "payable": false,
      "stateMutability": "nonpayable",
      "type": "function"
    },
    {
      "constant": false,
      "inputs": [],
      "name": "getProducts",
      "outputs": [
        {
          "components": [
            {
              "internalType": "string",
              "name": "Name",
              "type": "string"
            },
            {
              "internalType": "uint256",
              "name": "Quantity",
              "type": "uint256"
            }
          ],
          "internalType": "struct Manufacturing.Product[]",
          "name": "",
          "type": "tuple[]"
        }
      ],
      "payable": false,
      "stateMutability": "nonpayable",
      "type": "function"
    }
  ],
  "bytecode": "0x60806040523480156200001157600080fd5b50602460006040516200002490620004bf565b9081526020016040518091039020819055506024600060405162000048906200047a565b908152602001604051809103902081905550601260006040516200006c90620004d6565b908152602001604051809103902081905550602860006040516200009090620004a8565b90815260200160405180910390208190555060106000604051620000b49062000491565b90815260200160405180910390208190555060106000604051620000d8906200051b565b90815260200160405180910390208190555060106000604051620000fc9062000504565b90815260200160405180910390208190555060326000604051620001209062000532565b90815260200160405180910390208190555060326000604051620001449062000560565b90815260200160405180910390208190555060106000604051620001689062000549565b908152602001604051809103902081905550600160006040516200018c90620004ed565b90815260200160405180910390208190555062000582565b6000620001b360058362000577565b91507f7261696c730000000000000000000000000000000000000000000000000000006000830152600582019050919050565b6000620001f560068362000577565b91507f70756c6c657900000000000000000000000000000000000000000000000000006000830152600682019050919050565b600062000237600b8362000577565b91507f737465656c5f73686565740000000000000000000000000000000000000000006000830152600b82019050919050565b600062000279600b8362000577565b91507f737465656c5f70616e656c0000000000000000000000000000000000000000006000830152600b82019050919050565b6000620002bb60068362000577565b91507f73656e736f7200000000000000000000000000000000000000000000000000006000830152600682019050919050565b6000620002fd600a8362000577565b91507f636f6e74726f6c6c6572000000000000000000000000000000000000000000006000830152600a82019050919050565b60006200033f600a8362000577565b91507f737465656c6361626c65000000000000000000000000000000000000000000006000830152600a82019050919050565b60006200038160058362000577565b91507f6d6f746f720000000000000000000000000000000000000000000000000000006000830152600582019050919050565b6000620003c360088362000577565b91507f6c65646c696768740000000000000000000000000000000000000000000000006000830152600882019050919050565b60006200040560068362000577565b91507f73637265656e00000000000000000000000000000000000000000000000000006000830152600682019050919050565b60006200044760068362000577565b91507f627574746f6e00000000000000000000000000000000000000000000000000006000830152600682019050919050565b60006200048782620001a4565b9150819050919050565b60006200049e82620001e6565b9150819050919050565b6000620004b58262000228565b9150819050919050565b6000620004cc826200026a565b9150819050919050565b6000620004e382620002ac565b9150819050919050565b6000620004fa82620002ee565b9150819050919050565b6000620005118262000330565b9150819050919050565b6000620005288262000372565b9150819050919050565b60006200053f82620003b4565b9150819050919050565b60006200055682620003f6565b9150819050919050565b60006200056d8262000438565b9150819050919050565b600081905092915050565b61131480620005926000396000f3fe608060405234801561001057600080fd5b50600436106100b45760003560e01c806363050f8b1161007157806363050f8b14610145578063752f00a61461014f5780637ef914241461016d57806391347df414610177578063a8077666146101a7578063c29b2f20146101b1576100b4565b8063041ac087146100b95780630c1b7c1e146100c35780631ca679c0146100e157806335991911146100eb57806351e971031461010957806357f103e514610127575b600080fd5b6100c16101cf565b005b6100cb6101da565b6040516100d891906111a0565b60405180910390f35b6100e9610319565b005b6100f3610324565b60405161010091906111a0565b60405180910390f35b6101116104c3565b60405161011e91906111a0565b60405180910390f35b61012f610602565b60405161013c91906111a0565b60405180910390f35b61014d6107cf565b005b6101576107da565b60405161016491906111a0565b60405180910390f35b610175610949565b005b610191600480360361018c9190810190610c79565b610954565b60405161019e91906111a0565b60405180910390f35b6101af610982565b005b6101b961098d565b6040516101c6919061117e565b60405180910390f35b6101d7610602565b50565b6000600160006040516101ec90611154565b908152602001604051809103902054101561020657600080fd5b61020e6109cd565b6040518060200160405280600181525090508060000151600060405161023390611154565b908152602001604051809103902060008282548161024d57fe5b0492505081905591506040518060400160405280600681526020017f53637265656e0000000000000000000000000000000000000000000000000000815250600160000190805190602001906102a49291906109e0565b50816001800181905550600360019080600181540180825580915050906001820390600052602060002090600202016000909192909190915060008201816000019080546001816001161561010002031660029004610304929190610a60565b50600182015481600101555050508191505090565b610321610324565b50565b600060026000604051610336906110d6565b9081526020016040518091039020541015801561037057506002600060405161035e90611097565b90815260200160405180910390205410155b8015610399575060026000604051610387906110eb565b90815260200160405180910390205410155b6103a257600080fd5b6103aa610ae7565b6040518060600160405280600281526020016002815260200160018152509050806000015160006040516103dd906110d6565b90815260200160405180910390206000828254816103f757fe5b0492505081905591506040518060400160405280600481526020017f446f6f72000000000000000000000000000000000000000000000000000000008152506001600001908051906020019061044e9291906109e0565b508160018001819055506003600190806001815401808255809150509060018203906000526020600020906002020160009091929091909150600082018160000190805460018160011615610100020316600290046104ae929190610a60565b50600182015481600101555050508191505090565b6000600160006040516104d590611100565b90815260200160405180910390205410156104ef57600080fd5b6104f7610b08565b6040518060200160405280600181525090508060000151600060405161051c90611100565b908152602001604051809103902060008282548161053657fe5b0492505081905591506040518060400160405280600781526020017f42617474657279000000000000000000000000000000000000000000000000008152506001600001908051906020019061058d9291906109e0565b508160018001819055506003600190806001815401808255809150509060018203906000526020600020906002020160009091929091909150600082018160000190805460018160011615610100020316600290046105ed929190610a60565b50600182015481600101555050508191505090565b6000600a6000604051610614906110c1565b9081526020016040518091039020541015801561064e57506002600060405161063c906110ac565b90815260200160405180910390205410155b80156106765750600260006040516106659061112a565b908152602001604051809103902054145b801561069e57506002600060405161068d90611115565b908152602001604051809103902054145b6106a757600080fd5b6106af610b1b565b6040518060800160405280600a8152602001600281526020016002815260200160028152509050806000015160006040516106e9906110c1565b908152602001604051809103902060008282548161070357fe5b0492505081905591506040518060400160405280600581526020017f4672616d650000000000000000000000000000000000000000000000000000008152506001600001908051906020019061075a9291906109e0565b508160018001819055506003600190806001815401808255809150509060018203906000526020600020906002020160009091929091909150600082018160000190805460018160011615610100020316600290046107ba929190610a60565b50600182015481600101555050508191505090565b6107d76104c3565b50565b6000600260006040516107ec90611169565b908152602001604051809103902054101580156108265750600260006040516108149061113f565b90815260200160405180910390205410155b61082f57600080fd5b610837610b43565b604051806040016040528060018152602001600181525090508060200151600060405161086390611169565b908152602001604051809103902060008282548161087d57fe5b0492505081905591506040518060400160405280600681526020017f427574746f6e0000000000000000000000000000000000000000000000000000815250600160000190805190602001906108d49291906109e0565b50816001800181905550600360019080600181540180825580915050906001820390600052602060002090600202016000909192909190915060008201816000019080546001816001161561010002031660029004610934929190610a60565b50600182015481600101555050508191505090565b6109516101da565b50565b6000818051602081018201805184825260208301602085012081835280955050505050506000915090505481565b61098a6107da565b50565b60606003600061099d9190610b5d565b6109a5610324565b506109ae610602565b506109b76107da565b506109c06101da565b506109c96104c3565b5090565b6040518060200160405280600081525090565b828054600181600116156101000203166002900490600052602060002090601f016020900481019282601f10610a2157805160ff1916838001178555610a4f565b82800160010185558215610a4f579182015b82811115610a4e578251825591602001919060010190610a33565b5b509050610a5c9190610b81565b5090565b828054600181600116156101000203166002900490600052602060002090601f016020900481019282601f10610a995780548555610ad6565b82800160010185558215610ad657600052602060002091601f016020900482015b82811115610ad5578254825591600101919060010190610aba565b5b509050610ae39190610b81565b5090565b60405180606001604052806000815260200160008152602001600081525090565b6040518060200160405280600081525090565b6040518060800160405280600081526020016000815260200160008152602001600081525090565b604051806040016040528060008152602001600081525090565b5080546000825560020290600052602060002090810190610b7e9190610ba6565b50565b610ba391905b80821115610b9f576000816000905550600101610b87565b5090565b90565b610bda91905b80821115610bd65760008082016000610bc59190610bdd565b600182016000905550600201610bac565b5090565b90565b50805460018160011615610100020316600290046000825580601f10610c035750610c22565b601f016020900490600052602060002090810190610c219190610b81565b5b50565b600082601f830112610c3657600080fd5b8135610c49610c44826111e8565b6111bb565b91508082526020830160208301858383011115610c6557600080fd5b610c7083828461127e565b50505092915050565b600060208284031215610c8b57600080fd5b600082013567ffffffffffffffff811115610ca557600080fd5b610cb184828501610c25565b91505092915050565b6000610cc6838361103c565b905092915050565b6000610cd982611224565b610ce38185611247565b935083602082028501610cf585611214565b8060005b85811015610d315784840389528151610d128582610cba565b9450610d1d8361123a565b925060208a01995050600181019050610cf9565b50829750879550505050505092915050565b6000610d4e8261122f565b610d588185611258565b9350610d6881856020860161128d565b610d71816112c0565b840191505092915050565b6000610d89600583611269565b91507f7261696c730000000000000000000000000000000000000000000000000000006000830152600582019050919050565b6000610dc9600683611269565b91507f70756c6c657900000000000000000000000000000000000000000000000000006000830152600682019050919050565b6000610e09600b83611269565b91507f737465656c5f73686565740000000000000000000000000000000000000000006000830152600b82019050919050565b6000610e49600b83611269565b91507f737465656c5f70616e656c0000000000000000000000000000000000000000006000830152600b82019050919050565b6000610e89600683611269565b91507f73656e736f7200000000000000000000000000000000000000000000000000006000830152600682019050919050565b6000610ec9600a83611269565b91507f636f6e74726f6c6c6572000000000000000000000000000000000000000000006000830152600a82019050919050565b6000610f09600a83611269565b91507f737465656c6361626c65000000000000000000000000000000000000000000006000830152600a82019050919050565b6000610f49600583611269565b91507f6d6f746f720000000000000000000000000000000000000000000000000000006000830152600582019050919050565b6000610f89600883611269565b91507f6c65646c696768740000000000000000000000000000000000000000000000006000830152600882019050919050565b6000610fc9600683611269565b91507f73637265656e00000000000000000000000000000000000000000000000000006000830152600682019050919050565b6000611009600683611269565b91507f627574746f6e00000000000000000000000000000000000000000000000000006000830152600682019050919050565b600060408301600083015184820360008601526110598282610d43565b915050602083015161106e6020860182611079565b508091505092915050565b61108281611274565b82525050565b61109181611274565b82525050565b60006110a282610d7c565b9150819050919050565b60006110b782610dbc565b9150819050919050565b60006110cc82610dfc565b9150819050919050565b60006110e182610e3c565b9150819050919050565b60006110f682610e7c565b9150819050919050565b600061110b82610ebc565b9150819050919050565b600061112082610efc565b9150819050919050565b600061113582610f3c565b9150819050919050565b600061114a82610f7c565b9150819050919050565b600061115f82610fbc565b9150819050919050565b600061117482610ffc565b9150819050919050565b600060208201905081810360008301526111988184610cce565b905092915050565b60006020820190506111b56000830184611088565b92915050565b6000604051905081810181811067ffffffffffffffff821117156111de57600080fd5b8060405250919050565b600067ffffffffffffffff8211156111ff57600080fd5b601f19601f8301169050602081019050919050565b6000819050602082019050919050565b600081519050919050565b600081519050919050565b6000602082019050919050565b600082825260208201905092915050565b600082825260208201905092915050565b600081905092915050565b6000819050919050565b82818337600083830152505050565b60005b838110156112ab578082015181840152602081019050611290565b838111156112ba576000848401525b50505050565b6000601f19601f830116905091905056fea365627a7a72315820dfb04e9724a6ca5a9d6190147897d8c526efa2fa7305d0ff1e6ca3656f5e222b6c6578706572696d656e74616cf564736f6c63430005100040",
  "source": "// SPDX-License-Identifier: MIT\npragma solidity >=0.4.22 <0.8.0;\npragma experimental ABIEncoderV2;\ncontract Manufacturing {\n    \n    \n    mapping (string => uint256) public materials;\n    \n    struct Product {\n        string Name;\n        uint256 Quantity;\n    }\n    \n    struct Door{ \n        uint256 steel_panel; \n        uint256 rails; \n        uint256 sensor;\n    } \n    struct Frame{\n        uint256 steel_sheet; //10\n        uint256 pulley; //2\n        uint256 motor; //2\n        uint256 steelcable; //2\n    }\n    \n    struct Button{\n        uint256 ledlight;\n        uint256 button;\n    }\n    \n    struct Display{\n        uint256 screen;\n    }\n    \n    struct Battery{\n        uint256 controller;\n    }\n    \n    Product productStruct;\n    Product[] productList;    \n    constructor() public {\n        //doors\n        materials[\"steel_panel\"] = 36; //2 per doors\n        materials[\"rails\"] = 36; //2 per doors\n        materials[\"sensor\"] = 18; //1 per doors\n        //frames\n        materials[\"steel_sheet\"] = 40; //10 per frame\n        materials[\"pulley\"] = 16; //2 per frame\n        materials[\"motor\"] = 16; //2 per frame \n        materials[\"steelcable\"] = 16; //2 per frame\n        //buttons\n        materials[\"ledlight\"] = 50; //1 per button\n        materials[\"button\"] = 50; //1 per button \n        //display\n        materials[\"screen\"] = 16; //1 per display\n        //battery\n        materials[\"controller\"] = 1; //1 per battery\n    }\n    //create doors\n    function doors() public returns (uint256 numDoors) {\n        require(materials[\"steel_panel\"] >= 2 && materials[\"rails\"] >= 2 && materials[\"sensor\"] >= 2); \n        // if (materials[\"steel_panel\"] == 0 && materials[\"rails\"] == 0 && materials[\"sensor\"] == 0) {\n        //     return 0;\n        // }\n        Door memory door1 = Door(2, 2, 1);\n        numDoors = materials[\"steel_panel\"] /= door1.steel_panel;\n        productStruct.Name = \"Door\";\n        productStruct.Quantity = numDoors;\n        productList.push(productStruct);\n        return numDoors;\n    }\n    //create frames\n    function frames() public returns (uint256 numFrames) {\n        require (materials[\"steel_sheet\"] >= 10 && materials[\"pulley\"] >= 2 && materials[\"motor\"] == 2 && materials[\"steelcable\"] == 2);\n        // if (materials[\"steel_sheet\"] == 0 && materials[\"pulley\"] == 0 && materials[\"motor\"] == 0 && materials[\"steelcable\"] == 0) {\n        //     return 0;\n        // }\n        Frame memory frame1 = Frame(10, 2, 2, 2);\n        numFrames = materials[\"steel_sheet\"] /= frame1.steel_sheet;\n        productStruct.Name = \"Frame\";\n        productStruct.Quantity = numFrames;\n        productList.push(productStruct);\n        return numFrames;\n    }\n    //create buttons\n    function buttons() public returns (uint256 numButtons) {\n        require (materials[\"button\"] >= 2 && materials[\"ledlight\"] >= 2);\n        // if (materials[\"button\"] == 0 && materials[\"ledlight\"] == 0) {\n        //     return 0;\n        // }\n        Button memory button1 = Button(1, 1);\n        numButtons = materials[\"button\"] /= button1.button;\n        productStruct.Name = \"Button\";\n        productStruct.Quantity = numButtons;\n        productList.push(productStruct);\n        return numButtons;\n    }\n    // create display\n    function display() public returns (uint256 numDisplay){\n        require (materials[\"screen\"] >= 1);\n        // if (materials[\"screen\"] >= 1) {\n        //     return 0;\n        // }\n        Display memory display1 = Display(1);\n        numDisplay = materials[\"screen\"] /= display1.screen;\n        productStruct.Name = \"Screen\";\n        productStruct.Quantity = numDisplay;\n        productList.push(productStruct);\n        return numDisplay;\n    }\n    \n    // create batteries\n    function batteries() public returns (uint256 numBattery){\n        require (materials[\"controller\"] >= 1);\n        // if (materials[\"controller\"] >= 1){\n        //     return 0;\n        // }\n        Battery memory battery1 = Battery(1);\n        numBattery = materials[\"controller\"] /= battery1.controller;\n        productStruct.Name = \"Battery\";\n        productStruct.Quantity = numBattery;\n        productList.push(productStruct);\n        return numBattery;\n    }\n    // gets all the doors\n    function getDoors() public {\n        doors();\n    }\n    // gets all the frames\n    function getFrames() public{\n        frames();\n    }\n    // gets all the buttons\n    function getButtons() public{\n        buttons();\n    }\n    // gets all the displays\n    function getDisplay() public {\n        display();\n    }\n    //gets all the batteries controllers\n    function getBatteries() public {\n        batteries();\n    }\n    // gets all the roducts regardless of their type\n    function getProducts() public returns(Product[] memory){\n        delete productList;\n        doors();\n        frames();\n        buttons();\n        display();\n        batteries();\n    }\n}",
  "sourcePath": "/Users/frimina/Desktop/week12/Rocket_Elevators_Smart_Contracts/contracts/Manifacturing.sol",
  "compiler": {
    "name": "solc",
    "version": "0.5.16+commit.9c3226ce.Emscripten.clang"
  },
  "schemaVersion": "3.3.2",
  "updatedAt": "2020-12-12T03:24:42.209Z",
  "devdoc": {
    "methods": {}
  },
  "userdoc": {
    "methods": {}
  }
}