{
  "contractName": "ProjectOffice",
  "abi": [
    {
      "constant": true,
      "inputs": [],
      "name": "nbButtons",
      "outputs": [
        {
          "internalType": "uint256",
          "name": "",
          "type": "uint256"
        }
      ],
      "payable": false,
      "stateMutability": "view",
      "type": "function"
    },
    {
      "constant": true,
      "inputs": [],
      "name": "nbControllers",
      "outputs": [
        {
          "internalType": "uint256",
          "name": "",
          "type": "uint256"
        }
      ],
      "payable": false,
      "stateMutability": "view",
      "type": "function"
    },
    {
      "constant": true,
      "inputs": [],
      "name": "nbDisplays",
      "outputs": [
        {
          "internalType": "uint256",
          "name": "",
          "type": "uint256"
        }
      ],
      "payable": false,
      "stateMutability": "view",
      "type": "function"
    },
    {
      "constant": true,
      "inputs": [],
      "name": "nbDoors",
      "outputs": [
        {
          "internalType": "uint256",
          "name": "",
          "type": "uint256"
        }
      ],
      "payable": false,
      "stateMutability": "view",
      "type": "function"
    },
    {
      "constant": true,
      "inputs": [],
      "name": "nbElevators",
      "outputs": [
        {
          "internalType": "uint256",
          "name": "",
          "type": "uint256"
        }
      ],
      "payable": false,
      "stateMutability": "view",
      "type": "function"
    },
    {
      "constant": false,
      "inputs": [
        {
          "internalType": "uint256",
          "name": "_nbElevators",
          "type": "uint256"
        },
        {
          "internalType": "uint256",
          "name": "_nbControllers",
          "type": "uint256"
        },
        {
          "internalType": "uint256",
          "name": "_nbDoors",
          "type": "uint256"
        },
        {
          "internalType": "uint256",
          "name": "_nbButtons",
          "type": "uint256"
        },
        {
          "internalType": "uint256",
          "name": "_nbDisplays",
          "type": "uint256"
        }
      ],
      "name": "setOrder",
      "outputs": [],
      "payable": false,
      "stateMutability": "nonpayable",
      "type": "function"
    },
    {
      "constant": true,
      "inputs": [],
      "name": "getOrder",
      "outputs": [
        {
          "internalType": "uint256[5]",
          "name": "",
          "type": "uint256[5]"
        }
      ],
      "payable": false,
      "stateMutability": "view",
      "type": "function"
    }
  ],
  "bytecode": "0x608060405234801561001057600080fd5b5061029d806100206000396000f3fe608060405234801561001057600080fd5b506004361061007d5760003560e01c8063958db55b1161005b578063958db55b1461011457806398a5bde014610132578063a73d9d7e14610150578063d36dedd21461016e5761007d565b80631378b52e14610082578063186de130146100d8578063243ec8ea146100f6575b600080fd5b6100d6600480360360a081101561009857600080fd5b8101908080359060200190929190803590602001909291908035906020019092919080359060200190929190803590602001909291905050506101b4565b005b6100e06101de565b6040518082815260200191505060405180910390f35b6100fe6101e4565b6040518082815260200191505060405180910390f35b61011c6101ea565b6040518082815260200191505060405180910390f35b61013a6101f0565b6040518082815260200191505060405180910390f35b6101586101f6565b6040518082815260200191505060405180910390f35b6101766101fc565b6040518082600560200280838360005b838110156101a1578082015181840152602081019050610186565b5050505090500191505060405180910390f35b84600081905550836001819055508260028190555081600381905550806004819055505050505050565b60045481565b60005481565b60025481565b60015481565b60035481565b610204610246565b61020c610246565b6040518060a00160405280600054815260200160015481526020016002548152602001600354815260200160045481525090508091505090565b6040518060a0016040528060059060208202803883398082019150509050509056fea265627a7a72315820e33e009a03232355bffb52897d23f98cbe6dfbdd3dd5497b430a1f436bafe95d64736f6c63430005100032",
  "source": "contract ProjectOffice {\n    // define needs\n    uint256 public nbElevators;\n    uint256 public nbControllers;\n    uint256 public nbDoors;\n    uint256 public nbButtons;\n    uint256 public nbDisplays;\n    function setOrder(\n        uint256 _nbElevators,\n        uint256 _nbControllers,\n        uint256 _nbDoors,\n        uint256 _nbButtons,\n        uint256 _nbDisplays\n    ) public {\n        nbElevators = _nbElevators;\n        nbControllers = _nbControllers;\n        nbDoors = _nbDoors;\n        nbButtons = _nbButtons;\n        nbDisplays = _nbDisplays;\n    }\n    function getOrder() public view returns (uint256[5] memory) {\n        uint256[5] memory myOrder = [\n            nbElevators,\n            nbControllers,\n            nbDoors,\n            nbButtons,\n            nbDisplays\n        ];\n        return myOrder;\n    }\n}",
  "sourcePath": "/Users/frimina/Desktop/week12/Rocket_Elevators_Smart_Contracts/contracts/ProjectOffice.sol",
  "compiler": {
    "name": "solc",
    "version": "0.5.16+commit.9c3226ce.Emscripten.clang"
  },
  "schemaVersion": "3.3.2",
  "updatedAt": "2020-12-11T19:49:11.840Z",
  "devdoc": {
    "methods": {}
  },
  "userdoc": {
    "methods": {}
  }
}