{
  "contractName": "QualityControl",
  "abi": [
    {
      "constant": true,
      "inputs": [],
      "name": "getVerification",
      "outputs": [
        {
          "components": [
            {
              "components": [
                {
                  "internalType": "uint256",
                  "name": "identifier",
                  "type": "uint256"
                },
                {
                  "internalType": "uint256",
                  "name": "startdate",
                  "type": "uint256"
                },
                {
                  "internalType": "uint256",
                  "name": "enddate",
                  "type": "uint256"
                }
              ],
              "internalType": "struct QualityControl.Permit",
              "name": "certificate",
              "type": "tuple"
            },
            {
              "components": [
                {
                  "internalType": "uint256",
                  "name": "identifier",
                  "type": "uint256"
                },
                {
                  "internalType": "uint256",
                  "name": "startdate",
                  "type": "uint256"
                },
                {
                  "internalType": "uint256",
                  "name": "enddate",
                  "type": "uint256"
                }
              ],
              "internalType": "struct QualityControl.Permit",
              "name": "perm",
              "type": "tuple"
            },
            {
              "components": [
                {
                  "internalType": "string",
                  "name": "name",
                  "type": "string"
                },
                {
                  "internalType": "uint64",
                  "name": "quantity",
                  "type": "uint64"
                },
                {
                  "internalType": "bool",
                  "name": "verified",
                  "type": "bool"
                }
              ],
              "internalType": "struct QualityControl.Product[]",
              "name": "mList",
              "type": "tuple[]"
            }
          ],
          "internalType": "struct QualityControl.Verification",
          "name": "",
          "type": "tuple"
        }
      ],
      "payable": false,
      "stateMutability": "view",
      "type": "function"
    }
  ],
  "bytecode": "0x60806040526000600760006101000a81548167ffffffffffffffff021916908367ffffffffffffffff16021790555034801561003a57600080fd5b506105618061004a6000396000f3fe608060405234801561001057600080fd5b506004361061002b5760003560e01c80631704f09814610030575b600080fd5b61003861004e565b6040516100459190610439565b60405180910390f35b61005661021a565b60006040518060600160405290816000820160405180606001604052908160008201548152602001600182015481526020016002820154815250508152602001600382016040518060600160405290816000820154815260200160018201548152602001600282015481525050815260200160068201805480602002602001604051908101604052809291908181526020016000905b8282101561020d5783829060005260206000209060020201604051806060016040529081600082018054600181600116156101000203166002900480601f0160208091040260200160405190810160405280929190818152602001828054600181600116156101000203166002900480156101a85780601f1061017d576101008083540402835291602001916101a8565b820191906000526020600020905b81548152906001019060200180831161018b57829003601f168201915b505050505081526020016001820160009054906101000a900467ffffffffffffffff1667ffffffffffffffff1667ffffffffffffffff1681526020016001820160089054906101000a900460ff161515151581525050815260200190600101906100ec565b5050505081525050905090565b604051806060016040528061022d610247565b815260200161023a610247565b8152602001606081525090565b60405180606001604052806000815260200160008152602001600081525090565b6000610274838361037b565b905092915050565b60006102878261046b565b610291818561048e565b9350836020820285016102a38561045b565b8060005b858110156102df57848403895281516102c08582610268565b94506102cb83610481565b925060208a019950506001810190506102a7565b50829750879550505050505092915050565b6102fa816104b0565b82525050565b600061030b82610476565b610315818561049f565b93506103258185602086016104da565b61032e8161050d565b840191505092915050565b60608201600082015161034f600085018261041b565b506020820151610362602085018261041b565b506040820151610375604085018261041b565b50505050565b600060608301600083015184820360008601526103988282610300565b91505060208301516103ad602086018261042a565b5060408301516103c060408601826102f1565b508091505092915050565b600060e0830160008301516103e36000860182610339565b5060208301516103f66060860182610339565b50604083015184820360c086015261040e828261027c565b9150508091505092915050565b610424816104bc565b82525050565b610433816104c6565b82525050565b6000602082019050818103600083015261045381846103cb565b905092915050565b6000819050602082019050919050565b600081519050919050565b600081519050919050565b6000602082019050919050565b600082825260208201905092915050565b600082825260208201905092915050565b60008115159050919050565b6000819050919050565b600067ffffffffffffffff82169050919050565b60005b838110156104f85780820151818401526020810190506104dd565b83811115610507576000848401525b50505050565b6000601f19601f830116905091905056fea365627a7a7231582060d13fe279ceaabeedbbfc4751f383ca2989de2430b1dcb7f14fe0e29c86d8866c6578706572696d656e74616cf564736f6c63430005100040",
  "source": "pragma solidity >=0.4.22 <0.8.0;\npragma experimental ABIEncoderV2;\n\nimport \"./Manufacturing.sol\";\n\ncontract QualityControl {\n    struct Permit {\n        uint256 identifier;\n        uint256 startdate;\n        uint256 enddate;\n        //uint datetime // 1512220800\n    }\n\n    struct Product {\n        string name;\n        uint64 quantity;\n        bool verified;\n    }\n\n    struct Verification {\n        Permit certificate;\n        Permit perm;\n        Product[] mList;\n    }\n    //Product[] mList;\n    Verification v;\n    uint64 index = 0;\n\n    function generatePermit() private view returns (Permit memory certificate) {\n        Permit memory p;\n        p.identifier = block.timestamp / 2;\n        p.startdate = block.timestamp;\n        p.enddate = block.timestamp + 5 * 365 days;\n        return p;\n    }\n\n    // function VerificationStamp(address a) public {\n    //     v.certificate = generatePermit();\n    //     v.perm = generatePermit();\n    //     Manufacturing.Product[] memory products = Manufacturing(a).viewOrder();\n    //     for (index; index < products.length; index++) {\n    //         Product memory p;\n    //         p.verified = true;\n    //         p.name = products[index].Name;\n    //         p.quantity = products[index].Quantity;\n    //         v.mList.push(p);\n    //     }\n    // }\n\n    function getVerification() public view returns (Verification memory) {\n        return v;\n    }\n}\n",
  "sourcePath": "/Users/khanhdang/Week12/Rocket_Elevators_Smart_Contracts/contracts/QualityControl.sol",
  "compiler": {
    "name": "solc",
    "version": "0.5.16+commit.9c3226ce.Emscripten.clang"
  },
  "schemaVersion": "3.3.2",
  "updatedAt": "2020-12-12T03:11:52.264Z",
  "devdoc": {
    "methods": {}
  },
  "userdoc": {
    "methods": {}
  }
}