{
  "contractName": "SmartContract",
  "abi": [
    {
      "anonymous": false,
      "inputs": [
        {
          "indexed": false,
          "internalType": "bool",
          "name": "doorsStatus",
          "type": "bool"
        },
        {
          "indexed": false,
          "internalType": "uint256",
          "name": "columnNumber",
          "type": "uint256"
        }
      ],
      "name": "Doors",
      "type": "event"
    },
    {
      "constant": true,
      "inputs": [
        {
          "internalType": "uint256",
          "name": "",
          "type": "uint256"
        }
      ],
      "name": "clients",
      "outputs": [
        {
          "internalType": "address",
          "name": "",
          "type": "address"
        }
      ],
      "payable": false,
      "stateMutability": "view",
      "type": "function"
    },
    {
      "constant": true,
      "inputs": [
        {
          "internalType": "uint256",
          "name": "",
          "type": "uint256"
        }
      ],
      "name": "columnList",
      "outputs": [
        {
          "internalType": "bool",
          "name": "isDoorsTestPass",
          "type": "bool"
        },
        {
          "internalType": "bool",
          "name": "isBrakesTestPass",
          "type": "bool"
        },
        {
          "internalType": "bool",
          "name": "isCableTestPass",
          "type": "bool"
        },
        {
          "internalType": "bool",
          "name": "hasBatteryOperatingPermit",
          "type": "bool"
        },
        {
          "internalType": "bool",
          "name": "hasColumnCertificateOfConformity",
          "type": "bool"
        }
      ],
      "payable": false,
      "stateMutability": "view",
      "type": "function"
    },
    {
      "constant": true,
      "inputs": [],
      "name": "nbButtons",
      "outputs": [
        {
          "internalType": "uint256",
          "name": "",
          "type": "uint256"
        }
      ],
      "payable": false,
      "stateMutability": "view",
      "type": "function"
    },
    {
      "constant": true,
      "inputs": [],
      "name": "nbControllers",
      "outputs": [
        {
          "internalType": "uint256",
          "name": "",
          "type": "uint256"
        }
      ],
      "payable": false,
      "stateMutability": "view",
      "type": "function"
    },
    {
      "constant": true,
      "inputs": [],
      "name": "nbDisplays",
      "outputs": [
        {
          "internalType": "uint256",
          "name": "",
          "type": "uint256"
        }
      ],
      "payable": false,
      "stateMutability": "view",
      "type": "function"
    },
    {
      "constant": true,
      "inputs": [],
      "name": "nbDoors",
      "outputs": [
        {
          "internalType": "uint256",
          "name": "",
          "type": "uint256"
        }
      ],
      "payable": false,
      "stateMutability": "view",
      "type": "function"
    },
    {
      "constant": true,
      "inputs": [],
      "name": "nbElevators",
      "outputs": [
        {
          "internalType": "uint256",
          "name": "",
          "type": "uint256"
        }
      ],
      "payable": false,
      "stateMutability": "view",
      "type": "function"
    },
    {
      "constant": true,
      "inputs": [],
      "name": "testVariable1",
      "outputs": [
        {
          "internalType": "bool",
          "name": "",
          "type": "bool"
        }
      ],
      "payable": false,
      "stateMutability": "view",
      "type": "function"
    },
    {
      "constant": false,
      "inputs": [
        {
          "internalType": "uint256",
          "name": "_nbElevators",
          "type": "uint256"
        },
        {
          "internalType": "uint256",
          "name": "_nbControllers",
          "type": "uint256"
        },
        {
          "internalType": "uint256",
          "name": "_nbDoors",
          "type": "uint256"
        },
        {
          "internalType": "uint256",
          "name": "_nbButtons",
          "type": "uint256"
        },
        {
          "internalType": "uint256",
          "name": "_nbDisplays",
          "type": "uint256"
        }
      ],
      "name": "setOrder",
      "outputs": [],
      "payable": false,
      "stateMutability": "nonpayable",
      "type": "function"
    },
    {
      "constant": true,
      "inputs": [],
      "name": "getOrder",
      "outputs": [
        {
          "internalType": "uint256[5]",
          "name": "",
          "type": "uint256[5]"
        }
      ],
      "payable": false,
      "stateMutability": "view",
      "type": "function"
    },
    {
      "constant": true,
      "inputs": [
        {
          "internalType": "uint256",
          "name": "_numberOfColumns",
          "type": "uint256"
        }
      ],
      "name": "getNumberOfColumns",
      "outputs": [
        {
          "internalType": "uint256",
          "name": "",
          "type": "uint256"
        }
      ],
      "payable": false,
      "stateMutability": "pure",
      "type": "function"
    },
    {
      "constant": false,
      "inputs": [
        {
          "internalType": "bool",
          "name": "_doorsStatus",
          "type": "bool"
        },
        {
          "internalType": "uint256",
          "name": "_columnNumber",
          "type": "uint256"
        }
      ],
      "name": "getDoorsStatus",
      "outputs": [],
      "payable": false,
      "stateMutability": "nonpayable",
      "type": "function"
    },
    {
      "constant": true,
      "inputs": [
        {
          "internalType": "bool",
          "name": "_brakeStatus",
          "type": "bool"
        }
      ],
      "name": "getBrakeStatus",
      "outputs": [
        {
          "internalType": "bool",
          "name": "",
          "type": "bool"
        }
      ],
      "payable": false,
      "stateMutability": "pure",
      "type": "function"
    },
    {
      "constant": true,
      "inputs": [
        {
          "internalType": "bool",
          "name": "_cableStatus",
          "type": "bool"
        }
      ],
      "name": "getCableStatus",
      "outputs": [
        {
          "internalType": "bool",
          "name": "",
          "type": "bool"
        }
      ],
      "payable": false,
      "stateMutability": "pure",
      "type": "function"
    },
    {
      "constant": true,
      "inputs": [
        {
          "internalType": "bool",
          "name": "_batteryStatus",
          "type": "bool"
        }
      ],
      "name": "getBatteryStatus",
      "outputs": [
        {
          "internalType": "bool",
          "name": "",
          "type": "bool"
        }
      ],
      "payable": false,
      "stateMutability": "pure",
      "type": "function"
    },
    {
      "constant": true,
      "inputs": [
        {
          "internalType": "bool",
          "name": "_isDoorsTestPass",
          "type": "bool"
        },
        {
          "internalType": "bool",
          "name": "_isBrakesTestPass",
          "type": "bool"
        },
        {
          "internalType": "bool",
          "name": "_isCableTestPass",
          "type": "bool"
        },
        {
          "internalType": "bool",
          "name": "_hasBatteryOperatingPermit",
          "type": "bool"
        }
      ],
      "name": "generateCertificate",
      "outputs": [
        {
          "internalType": "bool",
          "name": "",
          "type": "bool"
        }
      ],
      "payable": false,
      "stateMutability": "pure",
      "type": "function"
    },
    {
      "constant": false,
      "inputs": [],
      "name": "verifyColumn",
      "outputs": [],
      "payable": false,
      "stateMutability": "nonpayable",
      "type": "function"
    },
    {
      "constant": false,
      "inputs": [
        {
          "internalType": "uint256",
          "name": "_numberOfColumns",
          "type": "uint256"
        }
      ],
      "name": "isProductAproved",
      "outputs": [
        {
          "internalType": "bool",
          "name": "",
          "type": "bool"
        }
      ],
      "payable": false,
      "stateMutability": "nonpayable",
      "type": "function"
    },
    {
      "constant": true,
      "inputs": [],
      "name": "getClients",
      "outputs": [
        {
          "internalType": "address[16]",
          "name": "",
          "type": "address[16]"
        }
      ],
      "payable": false,
      "stateMutability": "view",
      "type": "function"
    }
  ],
  "bytecode": "0x60806040526001601660006101000a81548160ff0219169083151502179055506000601860006101000a81548160ff02191690831515021790555034801561004657600080fd5b50610b85806100566000396000f3fe608060405234801561001057600080fd5b50600436106101215760003560e01c8063958db55b116100ad578063a73d9d7e11610071578063a73d9d7e14610454578063c03e32f214610472578063c4e8a2f5146104b4578063d36dedd2146104fc578063f88af21d1461054257610121565b8063958db55b1461035457806398a5bde0146103725780639c3770f7146103905780639d35f48014610402578063a16f04731461044a57610121565b8063227de7b8116100f4578063227de7b814610228578063243ec8ea146102945780636c9b1397146102b25780636d5871cf146102d45780636db809951461030e57610121565b806302ede6c21461012657806306436cef1461016e5780631378b52e146101b4578063186de1301461020a575b600080fd5b6101546004803603602081101561013c57600080fd5b810190808035151590602001909291905050506105b0565b604051808215151515815260200191505060405180910390f35b61019a6004803603602081101561018457600080fd5b81019080803590602001909291905050506105ba565b604051808215151515815260200191505060405180910390f35b610208600480360360a08110156101ca57600080fd5b810190808035906020019092919080359060200190929190803590602001909291908035906020019092919080359060200190929190505050610659565b005b610212610683565b6040518082815260200191505060405180910390f35b61027a6004803603608081101561023e57600080fd5b81019080803515159060200190929190803515159060200190929190803515159060200190929190803515159060200190929190505050610689565b604051808215151515815260200191505060405180910390f35b61029c6106de565b6040518082815260200191505060405180910390f35b6102ba6106e4565b604051808215151515815260200191505060405180910390f35b61030c600480360360408110156102ea57600080fd5b81019080803515159060200190929190803590602001909291905050506106f7565b005b610316610770565b6040518082601060200280838360005b83811015610341578082015181840152602081019050610326565b5050505090500191505060405180910390f35b61035c6107f1565b6040518082815260200191505060405180910390f35b61037a6107f7565b6040518082815260200191505060405180910390f35b6103bc600480360360208110156103a657600080fd5b81019080803590602001909291905050506107fd565b6040518086151515158152602001851515151581526020018415151515815260200183151515158152602001821515151581526020019550505050505060405180910390f35b6104306004803603602081101561041857600080fd5b8101908080351515906020019092919050505061087d565b604051808215151515815260200191505060405180910390f35b610452610887565b005b61045c610a74565b6040518082815260200191505060405180910390f35b61049e6004803603602081101561048857600080fd5b8101908080359060200190929190505050610a7a565b6040518082815260200191505060405180910390f35b6104e2600480360360208110156104ca57600080fd5b81019080803515159060200190929190505050610a84565b604051808215151515815260200191505060405180910390f35b610504610a8e565b6040518082600560200280838360005b8381101561052f578082015181840152602081019050610514565b5050505090500191505060405180910390f35b61056e6004803603602081101561055857600080fd5b8101908080359060200190929190505050610ad8565b604051808273ffffffffffffffffffffffffffffffffffffffff1673ffffffffffffffffffffffffffffffffffffffff16815260200191505060405180910390f35b6000819050919050565b600080600090505b82811015610641576001601660046101000a81548160ff02191690831515021790555060011515601782815481106105f657fe5b9060005260206000200160000160049054906101000a900460ff16151514610634576000601660046101000a81548160ff0219169083151502179055505b80806001019150506105c2565b50601660049054906101000a900460ff169050919050565b84601081905550836011819055508260128190555081601381905550806014819055505050505050565b60145481565b6000600115158515151480156106a3575060011515841515145b80156106b3575060011515831515145b80156106c3575060011515821515145b156106d157600190506106d6565b600090505b949350505050565b60105481565b601860009054906101000a900460ff1681565b816017828154811061070557fe5b9060005260206000200160000160006101000a81548160ff0219169083151502179055507fa64dacec47743ab9ecf0ffc902dd9cd5825a671a8ba321a244046d34e45cf3b0828260405180831515151581526020018281526020019250505060405180910390a15050565b610778610b0b565b60006010806020026040519081016040528092919082601080156107e7576020028201915b8160009054906101000a900473ffffffffffffffffffffffffffffffffffffffff1673ffffffffffffffffffffffffffffffffffffffff168152602001906001019080831161079d575b5050505050905090565b60125481565b60115481565b6017818154811061080a57fe5b906000526020600020016000915090508060000160009054906101000a900460ff16908060000160019054906101000a900460ff16908060000160029054906101000a900460ff16908060000160039054906101000a900460ff16908060000160049054906101000a900460ff16905085565b6000819050919050565b60008090505b601554811015610a71576108b0601660009054906101000a900460ff16826106f7565b6108c8601660019054906101000a900460ff1661087d565b601782815481106108d557fe5b9060005260206000200160000160016101000a81548160ff021916908315150217905550610911601660029054906101000a900460ff16610a84565b6017828154811061091e57fe5b9060005260206000200160000160026101000a81548160ff02191690831515021790555061095a601660039054906101000a900460ff166105b0565b6017828154811061096757fe5b9060005260206000200160000160036101000a81548160ff021916908315150217905550610a336017828154811061099b57fe5b9060005260206000200160000160009054906101000a900460ff16601783815481106109c357fe5b9060005260206000200160000160019054906101000a900460ff16601784815481106109eb57fe5b9060005260206000200160000160029054906101000a900460ff1660178581548110610a1357fe5b9060005260206000200160000160039054906101000a900460ff16610689565b60178281548110610a4057fe5b9060005260206000200160000160046101000a81548160ff021916908315150217905550808060010191505061088d565b50565b60135481565b6000819050919050565b6000819050919050565b610a96610b2e565b610a9e610b2e565b6040518060a00160405280601054815260200160115481526020016012548152602001601354815260200160145481525090508091505090565b60008160108110610ae557fe5b016000915054906101000a900473ffffffffffffffffffffffffffffffffffffffff1681565b604051806102000160405280601090602082028038833980820191505090505090565b6040518060a0016040528060059060208202803883398082019150509050509056fea265627a7a72315820a969f571dae62edd9b1eba0e41f96b7ff3aa1e8122ab5961fdbc70ed5fd075fa64736f6c63430005100032",
  "source": "pragma solidity >=0.4.22 <0.8.0;\n//pragma experimental ABIEncoderV2;\n\ncontract SmartContract {\n\n    address[16] public clients;\n     // define needs\n    uint256 public nbElevators;\n    uint256 public nbControllers;\n    uint256 public nbDoors;\n    uint256 public nbButtons;\n    uint256 public nbDisplays;\n    function setOrder(\n        uint256 _nbElevators,\n        uint256 _nbControllers,\n        uint256 _nbDoors,\n        uint256 _nbButtons,\n        uint256 _nbDisplays\n    ) public {\n        nbElevators = _nbElevators;\n        nbControllers = _nbControllers;\n        nbDoors = _nbDoors;\n        nbButtons = _nbButtons;\n        nbDisplays = _nbDisplays;\n    }\n    function getOrder() public view returns (uint256[5] memory) {\n        uint256[5] memory myOrder = [\n            nbElevators,\n            nbControllers,\n            nbDoors,\n            nbButtons,\n            nbDisplays\n        ];\n        return myOrder;\n    }\n\n\n    uint numberOfColumns;\n    bool doorsStatus = true;\n    bool brakeStatus;  \n    bool cableStatus; \n    bool batteryStatus; \n    bool ProductAproved;\n    struct Column {\n        bool isDoorsTestPass;   \n        bool isBrakesTestPass;\n        bool isCableTestPass;\n        bool hasBatteryOperatingPermit;\n        bool hasColumnCertificateOfConformity;                \n    }\n    Column[] public columnList;   \n\n    event Doors (\n        bool doorsStatus,\n        uint columnNumber\n    );\n\n    bool public testVariable1 = false;\n    // struct Product {\n    //     string client;\n    //     string name;\n    //     string component;\n    //     bool isAproved;\n    //     uint quantity;\n    //     uint64 price;\n    //     uint columnNumber;            \n    // }    \n    // Product p;\n    function getNumberOfColumns(uint _numberOfColumns) public pure returns(uint){\n        return _numberOfColumns;\n    }\n    function getDoorsStatus(bool _doorsStatus, uint _columnNumber) public {\n        columnList[_columnNumber].isDoorsTestPass = _doorsStatus;\n        emit Doors(_doorsStatus, _columnNumber);\n    }\n    function getBrakeStatus(bool _brakeStatus) public pure returns(bool){\n        return _brakeStatus;\n    }\n    function getCableStatus(bool _cableStatus) public pure returns(bool){\n        return _cableStatus;\n    }\n    function getBatteryStatus(bool _batteryStatus) public pure returns(bool){\n        return _batteryStatus; \n    }\n    function generateCertificate( bool _isDoorsTestPass, bool _isBrakesTestPass, bool _isCableTestPass, bool _hasBatteryOperatingPermit) public pure returns(bool)  {\n        if (_isDoorsTestPass == true && _isBrakesTestPass == true && _isCableTestPass == true && _hasBatteryOperatingPermit == true)\n        {\n            return true;\n        }   else\n        {\n            return false;\n        }\n    } \n    function verifyColumn() public\n    {  \n        //Comment this part for testing \n        for (uint i = 0; i < numberOfColumns; i++)   {\n            getDoorsStatus(doorsStatus, i);\n            columnList[i].isBrakesTestPass = getBrakeStatus(brakeStatus);\n            columnList[i].isCableTestPass = getCableStatus(cableStatus);\n            columnList[i].hasBatteryOperatingPermit = getBatteryStatus(batteryStatus);\n            columnList[i].hasColumnCertificateOfConformity = generateCertificate(columnList[i].isDoorsTestPass, columnList[i].isBrakesTestPass, columnList[i].isCableTestPass, columnList[i].hasBatteryOperatingPermit);\n        }\n        // Use this part to test the function (Leave uncommented for testing only.)\n        //testVariable1 = getDoorsStatus(doorsStatus);               \n        // Use this part to test the function        \n    } \n    \n    function isProductAproved(uint _numberOfColumns) public returns(bool)\n    {         \n        for (uint i = 0; i < _numberOfColumns; i++)   {\n            //p.isAproved = true;\n            ProductAproved = true;\n            if (columnList[i].hasColumnCertificateOfConformity != true)\n            {\n                //p.isAproved = false;\n                ProductAproved = false;\n            }            \n        }\n        //return p.isAproved;\n        return ProductAproved;\n    }  \n    function getClients() public view returns (address[16] memory) {\n        return clients; \n    }\n}",
  "sourcePath": "/home/samuel/week12/Rocket_Elevators_Smart_Contracts/contracts/smartContract.sol",
  "compiler": {
    "name": "solc",
    "version": "0.5.16+commit.9c3226ce.Emscripten.clang"
  },
  "schemaVersion": "3.3.2",
  "updatedAt": "2020-12-11T19:03:08.779Z",
  "networkType": "ethereum",
  "devdoc": {
    "methods": {}
  },
  "userdoc": {
    "methods": {}
  }
}