{
  "contractName": "SmartContract",
  "abi": [
    {
      "constant": false,
      "inputs": [
        {
          "internalType": "bool",
          "name": "status",
          "type": "bool"
        }
      ],
      "name": "columnStatus",
      "outputs": [],
      "payable": false,
      "stateMutability": "nonpayable",
      "type": "function"
    },
    {
      "constant": false,
      "inputs": [
        {
          "internalType": "bool",
          "name": "status",
          "type": "bool"
        }
      ],
      "name": "doorsStatus",
      "outputs": [],
      "payable": false,
      "stateMutability": "nonpayable",
      "type": "function"
    },
    {
      "constant": false,
      "inputs": [
        {
          "internalType": "bool",
          "name": "status",
          "type": "bool"
        }
      ],
      "name": "brakeStatus",
      "outputs": [],
      "payable": false,
      "stateMutability": "nonpayable",
      "type": "function"
    },
    {
      "constant": false,
      "inputs": [
        {
          "internalType": "bool",
          "name": "status",
          "type": "bool"
        }
      ],
      "name": "cableStatus",
      "outputs": [],
      "payable": false,
      "stateMutability": "nonpayable",
      "type": "function"
    },
    {
      "constant": true,
      "inputs": [
        {
          "internalType": "uint256",
          "name": "initial",
          "type": "uint256"
        }
      ],
      "name": "getCertificate",
      "outputs": [
        {
          "internalType": "uint256",
          "name": "",
          "type": "uint256"
        }
      ],
      "payable": false,
      "stateMutability": "view",
      "type": "function"
    },
    {
      "constant": true,
      "inputs": [],
      "name": "getNumberOfCertificate",
      "outputs": [
        {
          "internalType": "uint256",
          "name": "",
          "type": "uint256"
        }
      ],
      "payable": false,
      "stateMutability": "view",
      "type": "function"
    }
  ],
  "bytecode": "0x608060405234801561001057600080fd5b5061025d806100206000396000f3fe608060405234801561001057600080fd5b50600436106100625760003560e01c806346f7281e1461006757806351640fee146100975780636611c03f146100d957806391a5c63f14610109578063e081a39e14610127578063f1aa1a4a14610157575b600080fd5b6100956004803603602081101561007d57600080fd5b81019080803515159060200190929190505050610187565b005b6100c3600480360360208110156100ad57600080fd5b81019080803590602001909291905050506101a3565b6040518082815260200191505060405180910390f35b610107600480360360208110156100ef57600080fd5b810190808035151590602001909291905050506101c4565b005b6101116101e1565b6040518082815260200191505060405180910390f35b6101556004803603602081101561013d57600080fd5b810190808035151590602001909291905050506101ee565b005b6101856004803603602081101561016d57600080fd5b8101908080351515906020019092919050505061020b565b005b806000806101000a81548160ff02191690831515021790555050565b6000600a82815481106101b257fe5b90600052602060002001549050919050565b80600060036101000a81548160ff02191690831515021790555050565b6000600a80549050905090565b80600060026101000a81548160ff02191690831515021790555050565b80600060016101000a81548160ff0219169083151502179055505056fea265627a7a72315820a32ecb16d6d134e62f5b09942c8ba828f3b7276c3dfca70ce1d4063e6efe5fd564736f6c63430005100032",
  "source": "pragma solidity >=0.4.22 <0.8.0;\n\n\ncontract SmartContract {\n\n    bool column;\n    bool doors;\n    bool brakes;\n    bool cable;\n\n    string client;\n    string name;\n    string component;\n    uint doorsNumber;\n    uint columnNumber;\n        \n    bool verified;\n    uint quantity;\n    uint64 price;\n        \n    uint certificate_of_conformity_unit;\n    uint [] certificate_of_conformity_list;\n    string battery_operating_permit;\n\n\n    \n         \n    //function that will return true if the test passes\n    function columnStatus(bool status) public {\n        column = status;\n    }\n\n    function doorsStatus(bool status) public {\n        doors = status;\n    }\n\n    function brakeStatus(bool status) public {\n        brakes = status;\n    }\n\n    function cableStatus(bool status) public {\n        cable = status;\n    }\n\n\n    //function to get the value of certificte list\n    function getCertificate(uint initial) public view returns(uint) {\n        return certificate_of_conformity_list[initial];\n    }\n    \n\n    //function to get the number of certificates\n    function getNumberOfCertificate() public view returns(uint) {\n        return certificate_of_conformity_list.length;\n    }\n\n\n\n\n\n//https://medium.com/better-programming/how-to-test-ethereum-smart-contracts-35abc8fa199d\n//https://medium.com/@yangnana11/solidity-function-types-4ad4e5de6d56\n \n\n    \n}\n\n",
  "sourcePath": "/Users/frimina/Desktop/Smart Contracts/contracts/smartContract.sol",
  "compiler": {
    "name": "solc",
    "version": "0.5.16+commit.9c3226ce.Emscripten.clang"
  },
  "schemaVersion": "3.3.2",
  "updatedAt": "2020-12-08T22:55:29.101Z",
  "devdoc": {
    "methods": {}
  },
  "userdoc": {
    "methods": {}
  }
}