{
  "contractName": "SmartContract",
  "abi": [
    {
      "constant": true,
      "inputs": [
        {
          "internalType": "uint256",
          "name": "",
          "type": "uint256"
        }
      ],
      "name": "clients",
      "outputs": [
        {
          "internalType": "address",
          "name": "",
          "type": "address"
        }
      ],
      "payable": false,
      "stateMutability": "view",
      "type": "function"
    },
    {
      "constant": true,
      "inputs": [
        {
          "internalType": "uint256",
          "name": "",
          "type": "uint256"
        }
      ],
      "name": "columnList",
      "outputs": [
        {
          "internalType": "bool",
          "name": "isDoorsTestPass",
          "type": "bool"
        },
        {
          "internalType": "bool",
          "name": "isBrakesTestPass",
          "type": "bool"
        },
        {
          "internalType": "bool",
          "name": "isCableTestPass",
          "type": "bool"
        },
        {
          "internalType": "bool",
          "name": "hasBatteryOperatingPermit",
          "type": "bool"
        },
        {
          "internalType": "bool",
          "name": "hasColumnCertificateOfConformity",
          "type": "bool"
        }
      ],
      "payable": false,
      "stateMutability": "view",
      "type": "function"
    },
    {
      "constant": true,
      "inputs": [],
      "name": "nbButtons",
      "outputs": [
        {
          "internalType": "uint256",
          "name": "",
          "type": "uint256"
        }
      ],
      "payable": false,
      "stateMutability": "view",
      "type": "function"
    },
    {
      "constant": true,
      "inputs": [],
      "name": "nbControllers",
      "outputs": [
        {
          "internalType": "uint256",
          "name": "",
          "type": "uint256"
        }
      ],
      "payable": false,
      "stateMutability": "view",
      "type": "function"
    },
    {
      "constant": true,
      "inputs": [],
      "name": "nbDisplays",
      "outputs": [
        {
          "internalType": "uint256",
          "name": "",
          "type": "uint256"
        }
      ],
      "payable": false,
      "stateMutability": "view",
      "type": "function"
    },
    {
      "constant": true,
      "inputs": [],
      "name": "nbDoors",
      "outputs": [
        {
          "internalType": "uint256",
          "name": "",
          "type": "uint256"
        }
      ],
      "payable": false,
      "stateMutability": "view",
      "type": "function"
    },
    {
      "constant": true,
      "inputs": [],
      "name": "nbElevators",
      "outputs": [
        {
          "internalType": "uint256",
          "name": "",
          "type": "uint256"
        }
      ],
      "payable": false,
      "stateMutability": "view",
      "type": "function"
    },
    {
      "constant": false,
      "inputs": [
        {
          "internalType": "uint256",
          "name": "_nbElevators",
          "type": "uint256"
        },
        {
          "internalType": "uint256",
          "name": "_nbControllers",
          "type": "uint256"
        },
        {
          "internalType": "uint256",
          "name": "_nbDoors",
          "type": "uint256"
        },
        {
          "internalType": "uint256",
          "name": "_nbButtons",
          "type": "uint256"
        },
        {
          "internalType": "uint256",
          "name": "_nbDisplays",
          "type": "uint256"
        }
      ],
      "name": "setOrder",
      "outputs": [],
      "payable": false,
      "stateMutability": "nonpayable",
      "type": "function"
    },
    {
      "constant": true,
      "inputs": [],
      "name": "getOrder",
      "outputs": [
        {
          "internalType": "uint256[5]",
          "name": "",
          "type": "uint256[5]"
        }
      ],
      "payable": false,
      "stateMutability": "view",
      "type": "function"
    },
    {
      "constant": true,
      "inputs": [
        {
          "internalType": "uint256",
          "name": "_numberOfColumns",
          "type": "uint256"
        }
      ],
      "name": "getNumberOfColumns",
      "outputs": [
        {
          "internalType": "uint256",
          "name": "",
          "type": "uint256"
        }
      ],
      "payable": false,
      "stateMutability": "pure",
      "type": "function"
    },
    {
      "constant": true,
      "inputs": [
        {
          "internalType": "bool",
          "name": "_doorsStatus",
          "type": "bool"
        }
      ],
      "name": "getDoorsStatus",
      "outputs": [
        {
          "internalType": "bool",
          "name": "",
          "type": "bool"
        }
      ],
      "payable": false,
      "stateMutability": "pure",
      "type": "function"
    },
    {
      "constant": true,
      "inputs": [
        {
          "internalType": "bool",
          "name": "_brakeStatus",
          "type": "bool"
        }
      ],
      "name": "getBrakeStatus",
      "outputs": [
        {
          "internalType": "bool",
          "name": "",
          "type": "bool"
        }
      ],
      "payable": false,
      "stateMutability": "pure",
      "type": "function"
    },
    {
      "constant": true,
      "inputs": [
        {
          "internalType": "bool",
          "name": "_cableStatus",
          "type": "bool"
        }
      ],
      "name": "getCableStatus",
      "outputs": [
        {
          "internalType": "bool",
          "name": "",
          "type": "bool"
        }
      ],
      "payable": false,
      "stateMutability": "pure",
      "type": "function"
    },
    {
      "constant": true,
      "inputs": [
        {
          "internalType": "bool",
          "name": "_batteryStatus",
          "type": "bool"
        }
      ],
      "name": "getBatteryStatus",
      "outputs": [
        {
          "internalType": "bool",
          "name": "",
          "type": "bool"
        }
      ],
      "payable": false,
      "stateMutability": "pure",
      "type": "function"
    },
    {
      "constant": false,
      "inputs": [
        {
          "internalType": "uint256",
          "name": "i",
          "type": "uint256"
        },
        {
          "internalType": "bool",
          "name": "_isDoorsTestPass",
          "type": "bool"
        },
        {
          "internalType": "bool",
          "name": "_isBrakesTestPass",
          "type": "bool"
        },
        {
          "internalType": "bool",
          "name": "_isCableTestPass",
          "type": "bool"
        },
        {
          "internalType": "bool",
          "name": "_hasBatteryOperatingPermit",
          "type": "bool"
        }
      ],
      "name": "generateCertificate",
      "outputs": [],
      "payable": false,
      "stateMutability": "nonpayable",
      "type": "function"
    },
    {
      "constant": false,
      "inputs": [],
      "name": "verifyColumn",
      "outputs": [],
      "payable": false,
      "stateMutability": "nonpayable",
      "type": "function"
    },
    {
      "constant": false,
      "inputs": [
        {
          "internalType": "uint256",
          "name": "_numberOfColumns",
          "type": "uint256"
        }
      ],
      "name": "isProductAproved",
      "outputs": [
        {
          "internalType": "bool",
          "name": "",
          "type": "bool"
        }
      ],
      "payable": false,
      "stateMutability": "nonpayable",
      "type": "function"
    },
    {
      "constant": true,
      "inputs": [],
      "name": "getClients",
      "outputs": [
        {
          "internalType": "address[16]",
          "name": "",
          "type": "address[16]"
        }
      ],
      "payable": false,
      "stateMutability": "view",
      "type": "function"
    }
  ],
  "bytecode": "0x608060405234801561001057600080fd5b50610b02806100206000396000f3fe608060405234801561001057600080fd5b50600436106101165760003560e01c80639d35f480116100a2578063c03e32f211610071578063c03e32f2146103fd578063c4e8a2f51461043f578063d36dedd214610487578063f88af21d146104cd578063fc9d45641461053b57610116565b80639d35f4801461032f578063a16f047314610377578063a1f35b0414610381578063a73d9d7e146103df57610116565b8063243ec8ea116100e9578063243ec8ea1461021d5780636db809951461023b578063958db55b1461028157806398a5bde01461029f5780639c3770f7146102bd57610116565b806302ede6c21461011b57806306436cef146101635780631378b52e146101a9578063186de130146101ff575b600080fd5b6101496004803603602081101561013157600080fd5b81019080803515159060200190929190505050610583565b604051808215151515815260200191505060405180910390f35b61018f6004803603602081101561017957600080fd5b810190808035906020019092919050505061058d565b604051808215151515815260200191505060405180910390f35b6101fd600480360360a08110156101bf57600080fd5b810190808035906020019092919080359060200190929190803590602001909291908035906020019092919080359060200190929190505050610635565b005b61020761065f565b6040518082815260200191505060405180910390f35b610225610665565b6040518082815260200191505060405180910390f35b61024361066b565b6040518082601060200280838360005b8381101561026e578082015181840152602081019050610253565b5050505090500191505060405180910390f35b6102896106ec565b6040518082815260200191505060405180910390f35b6102a76106f2565b6040518082815260200191505060405180910390f35b6102e9600480360360208110156102d357600080fd5b81019080803590602001909291905050506106f8565b6040518086151515158152602001851515151581526020018415151515815260200183151515158152602001821515151581526020019550505050505060405180910390f35b61035d6004803603602081101561034557600080fd5b81019080803515159060200190929190505050610778565b604051808215151515815260200191505060405180910390f35b61037f610782565b005b6103dd600480360360a081101561039757600080fd5b810190808035906020019092919080351515906020019092919080351515906020019092919080351515906020019092919080351515906020019092919050505061096f565b005b6103e76109e7565b6040518082815260200191505060405180910390f35b6104296004803603602081101561041357600080fd5b81019080803590602001909291905050506109ed565b6040518082815260200191505060405180910390f35b61046d6004803603602081101561045557600080fd5b810190808035151590602001909291905050506109f7565b604051808215151515815260200191505060405180910390f35b61048f610a01565b6040518082600560200280838360005b838110156104ba57808201518184015260208101905061049f565b5050505090500191505060405180910390f35b6104f9600480360360208110156104e357600080fd5b8101908080359060200190929190505050610a4b565b604051808273ffffffffffffffffffffffffffffffffffffffff1673ffffffffffffffffffffffffffffffffffffffff16815260200191505060405180910390f35b6105696004803603602081101561055157600080fd5b81019080803515159060200190929190505050610a7e565b604051808215151515815260200191505060405180910390f35b6000819050919050565b600080600090505b8281101561061a576001601860030160006101000a81548160ff02191690831515021790555060011515601782815481106105cc57fe5b9060005260206000200160000160049054906101000a900460ff1615151461060d576000601860030160006101000a81548160ff0219169083151502179055505b8080600101915050610595565b50601860030160009054906101000a900460ff169050919050565b84601081905550836011819055508260128190555081601381905550806014819055505050505050565b60145481565b60105481565b610673610a88565b60006010806020026040519081016040528092919082601080156106e2576020028201915b8160009054906101000a900473ffffffffffffffffffffffffffffffffffffffff1673ffffffffffffffffffffffffffffffffffffffff1681526020019060010190808311610698575b5050505050905090565b60125481565b60115481565b6017818154811061070557fe5b906000526020600020016000915090508060000160009054906101000a900460ff16908060000160019054906101000a900460ff16908060000160029054906101000a900460ff16908060000160039054906101000a900460ff16908060000160049054906101000a900460ff16905085565b6000819050919050565b60008090505b60155481101561096c576107aa601660009054906101000a900460ff16610a7e565b601782815481106107b757fe5b9060005260206000200160000160006101000a81548160ff0219169083151502179055506107f3601660019054906101000a900460ff16610778565b6017828154811061080057fe5b9060005260206000200160000160016101000a81548160ff02191690831515021790555061083c601660029054906101000a900460ff166109f7565b6017828154811061084957fe5b9060005260206000200160000160026101000a81548160ff021916908315150217905550610885601660039054906101000a900460ff16610583565b6017828154811061089257fe5b9060005260206000200160000160036101000a81548160ff02191690831515021790555061095f81601783815481106108c757fe5b9060005260206000200160000160009054906101000a900460ff16601784815481106108ef57fe5b9060005260206000200160000160019054906101000a900460ff166017858154811061091757fe5b9060005260206000200160000160029054906101000a900460ff166017868154811061093f57fe5b9060005260206000200160000160039054906101000a900460ff1661096f565b8080600101915050610788565b50565b60011515841515148015610987575060011515831515145b8015610997575060011515821515145b80156109a7575060011515811515145b156109e0576001601786815481106109bb57fe5b9060005260206000200160000160046101000a81548160ff0219169083151502179055505b5050505050565b60135481565b6000819050919050565b6000819050919050565b610a09610aab565b610a11610aab565b6040518060a00160405280601054815260200160115481526020016012548152602001601354815260200160145481525090508091505090565b60008160108110610a5857fe5b016000915054906101000a900473ffffffffffffffffffffffffffffffffffffffff1681565b6000819050919050565b604051806102000160405280601090602082028038833980820191505090505090565b6040518060a0016040528060059060208202803883398082019150509050509056fea265627a7a7231582043bdf8d9d10cc93d7ad9b8d6758b97b7d51a78df2d516becdc62ea54d816450264736f6c63430005100032",
  "source": "pragma solidity >=0.4.22 <0.8.0;\n\ncontract SmartContract {\n\n    address[16] public clients;\n     // define needs\n    uint256 public nbElevators;\n    uint256 public nbControllers;\n    uint256 public nbDoors;\n    uint256 public nbButtons;\n    uint256 public nbDisplays;\n    function setOrder(\n        uint256 _nbElevators,\n        uint256 _nbControllers,\n        uint256 _nbDoors,\n        uint256 _nbButtons,\n        uint256 _nbDisplays\n    ) public {\n        nbElevators = _nbElevators;\n        nbControllers = _nbControllers;\n        nbDoors = _nbDoors;\n        nbButtons = _nbButtons;\n        nbDisplays = _nbDisplays;\n    }\n    function getOrder() public view returns (uint256[5] memory) {\n        uint256[5] memory myOrder = [\n            nbElevators,\n            nbControllers,\n            nbDoors,\n            nbButtons,\n            nbDisplays\n        ];\n        return myOrder;\n    }\n    uint numberOfColumns;\n    bool doorsStatus;\n    bool brakeStatus;  \n    bool cableStatus; \n    bool batteryStatus; \n    struct Column {\n        bool isDoorsTestPass;   \n        bool isBrakesTestPass;\n        bool isCableTestPass;\n        bool hasBatteryOperatingPermit;\n        bool hasColumnCertificateOfConformity;                \n    }\n    Column[] public columnList;    \n    struct Product {\n        string client;\n        string name;\n        string component;\n        bool isAproved;\n        uint quantity;\n        uint64 price;\n        uint columnNumber;            \n    }    \n    Product p;\n        function getNumberOfColumns(uint _numberOfColumns) public pure returns(uint){\n        return _numberOfColumns;\n    }\n    function getDoorsStatus(bool _doorsStatus) public pure returns(bool){\n        return _doorsStatus;\n    }\n    function getBrakeStatus(bool _brakeStatus) public pure returns(bool){\n        return _brakeStatus;\n    }\n    function getCableStatus(bool _cableStatus) public pure returns(bool){\n        return _cableStatus;\n    }\n    function getBatteryStatus(bool _batteryStatus) public pure returns(bool){\n        return _batteryStatus; \n    }\n    function generateCertificate(uint i, bool _isDoorsTestPass, bool _isBrakesTestPass, bool _isCableTestPass, bool _hasBatteryOperatingPermit) public {\n        if (_isDoorsTestPass == true && _isBrakesTestPass == true && _isCableTestPass == true && _hasBatteryOperatingPermit == true)\n        {\n             columnList[i].hasColumnCertificateOfConformity = true;\n        }\n    } \n\n    function verifyColumn() public\n    {   \n        for (uint i = 0; i < numberOfColumns; i++)   {\n            columnList[i].isDoorsTestPass = getDoorsStatus(doorsStatus);\n            columnList[i].isBrakesTestPass = getBrakeStatus(brakeStatus);\n            columnList[i].isCableTestPass = getCableStatus(cableStatus);\n            columnList[i].hasBatteryOperatingPermit = getBatteryStatus(batteryStatus);\n            generateCertificate(i, columnList[i].isDoorsTestPass, columnList[i].isBrakesTestPass, columnList[i].isCableTestPass, columnList[i].hasBatteryOperatingPermit);\n        }\n    }\n    function isProductAproved(uint _numberOfColumns) public returns(bool)\n    {   \n        for (uint i = 0; i < _numberOfColumns; i++)   {\n            p.isAproved = true;\n            if (columnList[i].hasColumnCertificateOfConformity != true)\n            {\n                p.isAproved = false;\n            }            \n        }\n        return p.isAproved;\n    }  \n    function getClients() public view returns (address[16] memory) {\n        return clients; \n    }\n}",
  "sourcePath": "/home/samuel/week12/Rocket_Elevators_Smart_Contracts/contracts/smartContract.sol",
  "compiler": {
    "name": "solc",
    "version": "0.5.16+commit.9c3226ce.Emscripten.clang"
  },
  "schemaVersion": "3.3.2",
  "updatedAt": "2020-12-10T15:25:41.146Z",
  "networkType": "ethereum",
  "devdoc": {
    "methods": {}
  },
  "userdoc": {
    "methods": {}
  }
}