{
  "contractName": "SmartContracts",
  "abi": [
    {
      "constant": false,
      "inputs": [
        {
          "internalType": "bool",
          "name": "status",
          "type": "bool"
        }
      ],
      "name": "columnStatus",
      "outputs": [],
      "payable": false,
      "stateMutability": "nonpayable",
      "type": "function"
    },
    {
      "constant": false,
      "inputs": [
        {
          "internalType": "bool",
          "name": "status",
          "type": "bool"
        }
      ],
      "name": "doorsStatus",
      "outputs": [],
      "payable": false,
      "stateMutability": "nonpayable",
      "type": "function"
    },
    {
      "constant": false,
      "inputs": [
        {
          "internalType": "bool",
          "name": "status",
          "type": "bool"
        }
      ],
      "name": "brakeStatus",
      "outputs": [],
      "payable": false,
      "stateMutability": "nonpayable",
      "type": "function"
    },
    {
      "constant": false,
      "inputs": [
        {
          "internalType": "bool",
          "name": "status",
          "type": "bool"
        }
      ],
      "name": "cableStatus",
      "outputs": [],
      "payable": false,
      "stateMutability": "nonpayable",
      "type": "function"
    }
  ],
  "bytecode": "0x608060405234801561001057600080fd5b506101b9806100206000396000f3fe608060405234801561001057600080fd5b506004361061004c5760003560e01c806346f7281e146100515780636611c03f14610081578063e081a39e146100b1578063f1aa1a4a146100e1575b600080fd5b61007f6004803603602081101561006757600080fd5b81019080803515159060200190929190505050610111565b005b6100af6004803603602081101561009757600080fd5b8101908080351515906020019092919050505061012d565b005b6100df600480360360208110156100c757600080fd5b8101908080351515906020019092919050505061014a565b005b61010f600480360360208110156100f757600080fd5b81019080803515159060200190929190505050610167565b005b806000806101000a81548160ff02191690831515021790555050565b80600060036101000a81548160ff02191690831515021790555050565b80600060026101000a81548160ff02191690831515021790555050565b80600060016101000a81548160ff0219169083151502179055505056fea265627a7a72315820be1e86bcb954d1dc3d64dd8beedb2471a87b8db162e3172f7429b8c22134535364736f6c63430005100032",
  "source": "pragma solidity >=0.4.22 <0.8.0;\n\ncontract SmartContracts {\n    //test\n    bool column;\n    bool doors;\n    bool brakes;\n    bool cable;\n\n    struct product {\n\n        string client;\n        string name;\n        string component;\n        bool verified;\n        uint quantity;\n        uint64 price;\n        uint columnNumber;\n        uint certificate_of_conformity_unit;\n        uint [] certificate_of_conformity_list;\n        string battery_operating_permit;\n    }\n    \n    \n        \n    //function that will return true if the test passes\n    function columnStatus(bool status) public {\n        column = status;\n    }\n    function doorsStatus(bool status) public {\n        doors = status;\n    }\n    function brakeStatus(bool status) public {\n        brakes = status;\n    }\n    function cableStatus(bool status) public {\n        cable = status;\n    }\n\n\n    \n\n//https://medium.com/@yangnana11/solidity-function-types-4ad4e5de6d56\n \n\n    \n}\n\n",
  "sourcePath": "/Users/frimina/Desktop/Smart Contracts/contracts/smartContract.sol",
  "compiler": {
    "name": "solc",
    "version": "0.5.16+commit.9c3226ce.Emscripten.clang"
  },
  "schemaVersion": "3.3.2",
  "updatedAt": "2020-12-08T18:02:20.030Z",
  "devdoc": {
    "methods": {}
  },
  "userdoc": {
    "methods": {}
  }
}