{
  "contractName": "SmartContract",
  "abi": [
    {
      "constant": true,
      "inputs": [
        {
          "internalType": "uint256",
          "name": "",
          "type": "uint256"
        }
      ],
      "name": "clients",
      "outputs": [
        {
          "internalType": "address",
          "name": "",
          "type": "address"
        }
      ],
      "payable": false,
      "stateMutability": "view",
      "type": "function"
    },
    {
      "constant": true,
      "inputs": [
        {
          "internalType": "uint256",
          "name": "",
          "type": "uint256"
        }
      ],
      "name": "columnList",
      "outputs": [
        {
          "internalType": "bool",
          "name": "isDoorsTestPass",
          "type": "bool"
        },
        {
          "internalType": "bool",
          "name": "isBrakesTestPass",
          "type": "bool"
        },
        {
          "internalType": "bool",
          "name": "isCableTestPass",
          "type": "bool"
        },
        {
          "internalType": "bool",
          "name": "hasBatteryOperatingPermit",
          "type": "bool"
        },
        {
          "internalType": "bool",
          "name": "hasColumnCertificateOfConformity",
          "type": "bool"
        }
      ],
      "payable": false,
      "stateMutability": "view",
      "type": "function"
    },
    {
      "constant": true,
      "inputs": [],
      "name": "nbButtons",
      "outputs": [
        {
          "internalType": "uint256",
          "name": "",
          "type": "uint256"
        }
      ],
      "payable": false,
      "stateMutability": "view",
      "type": "function"
    },
    {
      "constant": true,
      "inputs": [],
      "name": "nbControllers",
      "outputs": [
        {
          "internalType": "uint256",
          "name": "",
          "type": "uint256"
        }
      ],
      "payable": false,
      "stateMutability": "view",
      "type": "function"
    },
    {
      "constant": true,
      "inputs": [],
      "name": "nbDisplays",
      "outputs": [
        {
          "internalType": "uint256",
          "name": "",
          "type": "uint256"
        }
      ],
      "payable": false,
      "stateMutability": "view",
      "type": "function"
    },
    {
      "constant": true,
      "inputs": [],
      "name": "nbDoors",
      "outputs": [
        {
          "internalType": "uint256",
          "name": "",
          "type": "uint256"
        }
      ],
      "payable": false,
      "stateMutability": "view",
      "type": "function"
    },
    {
      "constant": true,
      "inputs": [],
      "name": "nbElevators",
      "outputs": [
        {
          "internalType": "uint256",
          "name": "",
          "type": "uint256"
        }
      ],
      "payable": false,
      "stateMutability": "view",
      "type": "function"
    },
    {
      "constant": true,
      "inputs": [],
      "name": "testVariable1",
      "outputs": [
        {
          "internalType": "bool",
          "name": "",
          "type": "bool"
        }
      ],
      "payable": false,
      "stateMutability": "view",
      "type": "function"
    },
    {
      "constant": false,
      "inputs": [
        {
          "internalType": "uint256",
          "name": "_nbElevators",
          "type": "uint256"
        },
        {
          "internalType": "uint256",
          "name": "_nbControllers",
          "type": "uint256"
        },
        {
          "internalType": "uint256",
          "name": "_nbDoors",
          "type": "uint256"
        },
        {
          "internalType": "uint256",
          "name": "_nbButtons",
          "type": "uint256"
        },
        {
          "internalType": "uint256",
          "name": "_nbDisplays",
          "type": "uint256"
        }
      ],
      "name": "setOrder",
      "outputs": [],
      "payable": false,
      "stateMutability": "nonpayable",
      "type": "function"
    },
    {
      "constant": true,
      "inputs": [],
      "name": "getOrder",
      "outputs": [
        {
          "internalType": "uint256[5]",
          "name": "",
          "type": "uint256[5]"
        }
      ],
      "payable": false,
      "stateMutability": "view",
      "type": "function"
    },
    {
      "constant": true,
      "inputs": [
        {
          "internalType": "uint256",
          "name": "_numberOfColumns",
          "type": "uint256"
        }
      ],
      "name": "getNumberOfColumns",
      "outputs": [
        {
          "internalType": "uint256",
          "name": "",
          "type": "uint256"
        }
      ],
      "payable": false,
      "stateMutability": "pure",
      "type": "function"
    },
    {
      "constant": true,
      "inputs": [
        {
          "internalType": "bool",
          "name": "_doorsStatus",
          "type": "bool"
        }
      ],
      "name": "getDoorsStatus",
      "outputs": [
        {
          "internalType": "bool",
          "name": "",
          "type": "bool"
        }
      ],
      "payable": false,
      "stateMutability": "pure",
      "type": "function"
    },
    {
      "constant": true,
      "inputs": [
        {
          "internalType": "bool",
          "name": "_brakeStatus",
          "type": "bool"
        }
      ],
      "name": "getBrakeStatus",
      "outputs": [
        {
          "internalType": "bool",
          "name": "",
          "type": "bool"
        }
      ],
      "payable": false,
      "stateMutability": "pure",
      "type": "function"
    },
    {
      "constant": true,
      "inputs": [
        {
          "internalType": "bool",
          "name": "_cableStatus",
          "type": "bool"
        }
      ],
      "name": "getCableStatus",
      "outputs": [
        {
          "internalType": "bool",
          "name": "",
          "type": "bool"
        }
      ],
      "payable": false,
      "stateMutability": "pure",
      "type": "function"
    },
    {
      "constant": true,
      "inputs": [
        {
          "internalType": "bool",
          "name": "_batteryStatus",
          "type": "bool"
        }
      ],
      "name": "getBatteryStatus",
      "outputs": [
        {
          "internalType": "bool",
          "name": "",
          "type": "bool"
        }
      ],
      "payable": false,
      "stateMutability": "pure",
      "type": "function"
    },
    {
      "constant": true,
      "inputs": [
        {
          "internalType": "bool",
          "name": "_isDoorsTestPass",
          "type": "bool"
        },
        {
          "internalType": "bool",
          "name": "_isBrakesTestPass",
          "type": "bool"
        },
        {
          "internalType": "bool",
          "name": "_isCableTestPass",
          "type": "bool"
        },
        {
          "internalType": "bool",
          "name": "_hasBatteryOperatingPermit",
          "type": "bool"
        }
      ],
      "name": "generateCertificate",
      "outputs": [
        {
          "internalType": "bool",
          "name": "",
          "type": "bool"
        }
      ],
      "payable": false,
      "stateMutability": "pure",
      "type": "function"
    },
    {
      "constant": false,
      "inputs": [],
      "name": "verifyColumn",
      "outputs": [],
      "payable": false,
      "stateMutability": "nonpayable",
      "type": "function"
    },
    {
      "constant": false,
      "inputs": [
        {
          "internalType": "uint256",
          "name": "_numberOfColumns",
          "type": "uint256"
        }
      ],
      "name": "isProductAproved",
      "outputs": [
        {
          "internalType": "bool",
          "name": "",
          "type": "bool"
        }
      ],
      "payable": false,
      "stateMutability": "nonpayable",
      "type": "function"
    },
    {
      "constant": true,
      "inputs": [],
      "name": "getClients",
      "outputs": [
        {
          "internalType": "address[16]",
          "name": "",
          "type": "address[16]"
        }
      ],
      "payable": false,
      "stateMutability": "view",
      "type": "function"
    }
  ],
  "bytecode": "0x60806040526001601660006101000a81548160ff0219169083151502179055506000601860006101000a81548160ff02191690831515021790555034801561004657600080fd5b50610b54806100566000396000f3fe608060405234801561001057600080fd5b50600436106101215760003560e01c806398a5bde0116100ad578063c03e32f211610071578063c03e32f214610438578063c4e8a2f51461047a578063d36dedd2146104c2578063f88af21d14610508578063fc9d45641461057657610121565b806398a5bde0146103385780639c3770f7146103565780639d35f480146103c8578063a16f047314610410578063a73d9d7e1461041a57610121565b8063227de7b8116100f4578063227de7b814610228578063243ec8ea146102945780636c9b1397146102b25780636db80995146102d4578063958db55b1461031a57610121565b806302ede6c21461012657806306436cef1461016e5780631378b52e146101b4578063186de1301461020a575b600080fd5b6101546004803603602081101561013c57600080fd5b810190808035151590602001909291905050506105be565b604051808215151515815260200191505060405180910390f35b61019a6004803603602081101561018457600080fd5b81019080803590602001909291905050506105c8565b604051808215151515815260200191505060405180910390f35b610208600480360360a08110156101ca57600080fd5b810190808035906020019092919080359060200190929190803590602001909291908035906020019092919080359060200190929190505050610667565b005b610212610691565b6040518082815260200191505060405180910390f35b61027a6004803603608081101561023e57600080fd5b81019080803515159060200190929190803515159060200190929190803515159060200190929190803515159060200190929190505050610697565b604051808215151515815260200191505060405180910390f35b61029c6106ec565b6040518082815260200191505060405180910390f35b6102ba6106f2565b604051808215151515815260200191505060405180910390f35b6102dc610705565b6040518082601060200280838360005b838110156103075780820151818401526020810190506102ec565b5050505090500191505060405180910390f35b610322610786565b6040518082815260200191505060405180910390f35b61034061078c565b6040518082815260200191505060405180910390f35b6103826004803603602081101561036c57600080fd5b8101908080359060200190929190505050610792565b6040518086151515158152602001851515151581526020018415151515815260200183151515158152602001821515151581526020019550505050505060405180910390f35b6103f6600480360360208110156103de57600080fd5b81019080803515159060200190929190505050610812565b604051808215151515815260200191505060405180910390f35b61041861081c565b005b610422610a39565b6040518082815260200191505060405180910390f35b6104646004803603602081101561044e57600080fd5b8101908080359060200190929190505050610a3f565b6040518082815260200191505060405180910390f35b6104a86004803603602081101561049057600080fd5b81019080803515159060200190929190505050610a49565b604051808215151515815260200191505060405180910390f35b6104ca610a53565b6040518082600560200280838360005b838110156104f55780820151818401526020810190506104da565b5050505090500191505060405180910390f35b6105346004803603602081101561051e57600080fd5b8101908080359060200190929190505050610a9d565b604051808273ffffffffffffffffffffffffffffffffffffffff1673ffffffffffffffffffffffffffffffffffffffff16815260200191505060405180910390f35b6105a46004803603602081101561058c57600080fd5b81019080803515159060200190929190505050610ad0565b604051808215151515815260200191505060405180910390f35b6000819050919050565b600080600090505b8281101561064f576001601660046101000a81548160ff021916908315150217905550600115156017828154811061060457fe5b9060005260206000200160000160049054906101000a900460ff16151514610642576000601660046101000a81548160ff0219169083151502179055505b80806001019150506105d0565b50601660049054906101000a900460ff169050919050565b84601081905550836011819055508260128190555081601381905550806014819055505050505050565b60145481565b6000600115158515151480156106b1575060011515841515145b80156106c1575060011515831515145b80156106d1575060011515821515145b156106df57600190506106e4565b600090505b949350505050565b60105481565b601860009054906101000a900460ff1681565b61070d610ada565b600060108060200260405190810160405280929190826010801561077c576020028201915b8160009054906101000a900473ffffffffffffffffffffffffffffffffffffffff1673ffffffffffffffffffffffffffffffffffffffff1681526020019060010190808311610732575b5050505050905090565b60125481565b60115481565b6017818154811061079f57fe5b906000526020600020016000915090508060000160009054906101000a900460ff16908060000160019054906101000a900460ff16908060000160029054906101000a900460ff16908060000160039054906101000a900460ff16908060000160049054906101000a900460ff16905085565b6000819050919050565b60008090505b601554811015610a3657610844601660009054906101000a900460ff16610ad0565b6017828154811061085157fe5b9060005260206000200160000160006101000a81548160ff02191690831515021790555061088d601660019054906101000a900460ff16610812565b6017828154811061089a57fe5b9060005260206000200160000160016101000a81548160ff0219169083151502179055506108d6601660029054906101000a900460ff16610a49565b601782815481106108e357fe5b9060005260206000200160000160026101000a81548160ff02191690831515021790555061091f601660039054906101000a900460ff166105be565b6017828154811061092c57fe5b9060005260206000200160000160036101000a81548160ff0219169083151502179055506109f86017828154811061096057fe5b9060005260206000200160000160009054906101000a900460ff166017838154811061098857fe5b9060005260206000200160000160019054906101000a900460ff16601784815481106109b057fe5b9060005260206000200160000160029054906101000a900460ff16601785815481106109d857fe5b9060005260206000200160000160039054906101000a900460ff16610697565b60178281548110610a0557fe5b9060005260206000200160000160046101000a81548160ff0219169083151502179055508080600101915050610822565b50565b60135481565b6000819050919050565b6000819050919050565b610a5b610afd565b610a63610afd565b6040518060a00160405280601054815260200160115481526020016012548152602001601354815260200160145481525090508091505090565b60008160108110610aaa57fe5b016000915054906101000a900473ffffffffffffffffffffffffffffffffffffffff1681565b6000819050919050565b604051806102000160405280601090602082028038833980820191505090505090565b6040518060a0016040528060059060208202803883398082019150509050509056fea265627a7a72315820285fea9ab0fe6c83d583fdad6b1298f4ff3c6c3215f4b6ce7bc95b2fbd6c736664736f6c63430005100032",
  "source": "pragma solidity >=0.4.22 <0.8.0;\n//pragma experimental ABIEncoderV2;\n\ncontract SmartContract {\n\n    address[16] public clients;\n     // define needs\n    uint256 public nbElevators;\n    uint256 public nbControllers;\n    uint256 public nbDoors;\n    uint256 public nbButtons;\n    uint256 public nbDisplays;\n    function setOrder(\n        uint256 _nbElevators,\n        uint256 _nbControllers,\n        uint256 _nbDoors,\n        uint256 _nbButtons,\n        uint256 _nbDisplays\n    ) public {\n        nbElevators = _nbElevators;\n        nbControllers = _nbControllers;\n        nbDoors = _nbDoors;\n        nbButtons = _nbButtons;\n        nbDisplays = _nbDisplays;\n    }\n    function getOrder() public view returns (uint256[5] memory) {\n        uint256[5] memory myOrder = [\n            nbElevators,\n            nbControllers,\n            nbDoors,\n            nbButtons,\n            nbDisplays\n        ];\n        return myOrder;\n    }\n    uint numberOfColumns;\n    bool doorsStatus = true;\n    bool brakeStatus;  \n    bool cableStatus; \n    bool batteryStatus; \n    bool ProductAproved;\n    struct Column {\n        bool isDoorsTestPass;   \n        bool isBrakesTestPass;\n        bool isCableTestPass;\n        bool hasBatteryOperatingPermit;\n        bool hasColumnCertificateOfConformity;                \n    }\n    Column[] public columnList;   \n\n    bool public testVariable1 = false;\n    // struct Product {\n    //     string client;\n    //     string name;\n    //     string component;\n    //     bool isAproved;\n    //     uint quantity;\n    //     uint64 price;\n    //     uint columnNumber;            \n    // }    \n    // Product p;\n        function getNumberOfColumns(uint _numberOfColumns) public pure returns(uint){\n        return _numberOfColumns;\n    }\n    function getDoorsStatus(bool _doorsStatus) public pure returns(bool){\n        return _doorsStatus;\n    }\n    function getBrakeStatus(bool _brakeStatus) public pure returns(bool){\n        return _brakeStatus;\n    }\n    function getCableStatus(bool _cableStatus) public pure returns(bool){\n        return _cableStatus;\n    }\n    function getBatteryStatus(bool _batteryStatus) public pure returns(bool){\n        return _batteryStatus; \n    }\n    function generateCertificate( bool _isDoorsTestPass, bool _isBrakesTestPass, bool _isCableTestPass, bool _hasBatteryOperatingPermit) public pure returns(bool)  {\n        if (_isDoorsTestPass == true && _isBrakesTestPass == true && _isCableTestPass == true && _hasBatteryOperatingPermit == true)\n        {\n            return true;\n        }   else\n        {\n            return false;\n        }\n    } \n    function verifyColumn() public\n    {  \n        //Comment this part for testing \n        for (uint i = 0; i < numberOfColumns; i++)   {\n            columnList[i].isDoorsTestPass = getDoorsStatus(doorsStatus);\n            columnList[i].isBrakesTestPass = getBrakeStatus(brakeStatus);\n            columnList[i].isCableTestPass = getCableStatus(cableStatus);\n            columnList[i].hasBatteryOperatingPermit = getBatteryStatus(batteryStatus);\n            columnList[i].hasColumnCertificateOfConformity = generateCertificate(columnList[i].isDoorsTestPass, columnList[i].isBrakesTestPass, columnList[i].isCableTestPass, columnList[i].hasBatteryOperatingPermit);\n        }\n        // Use this part to test the function (Leave uncommented for testing only.)\n        //testVariable1 = getDoorsStatus(doorsStatus);               \n        // Use this part to test the function        \n    } \n    \n    function isProductAproved(uint _numberOfColumns) public returns(bool)\n    {         \n        for (uint i = 0; i < _numberOfColumns; i++)   {\n            //p.isAproved = true;\n            ProductAproved = true;\n            if (columnList[i].hasColumnCertificateOfConformity != true)\n            {\n                //p.isAproved = false;\n                ProductAproved = false;\n            }            \n        }\n        //return p.isAproved;\n        return ProductAproved;\n    }  \n    function getClients() public view returns (address[16] memory) {\n        return clients; \n    }\n}",
  "sourcePath": "/home/samuel/week12/Rocket_Elevators_Smart_Contracts/contracts/smartContract.sol",
  "compiler": {
    "name": "solc",
    "version": "0.5.16+commit.9c3226ce.Emscripten.clang"
  },
  "schemaVersion": "3.3.2",
  "updatedAt": "2020-12-11T03:32:31.548Z",
  "devdoc": {
    "methods": {}
  },
  "userdoc": {
    "methods": {}
  }
}