{
  "contractName": "SmartContract",
  "abi": [
    {
      "constant": true,
      "inputs": [
        {
          "internalType": "uint256",
          "name": "",
          "type": "uint256"
        }
      ],
      "name": "columnList",
      "outputs": [
        {
          "internalType": "bool",
          "name": "isDoorsTestPass",
          "type": "bool"
        },
        {
          "internalType": "bool",
          "name": "isBrakesTestPass",
          "type": "bool"
        },
        {
          "internalType": "bool",
          "name": "isCableTestPass",
          "type": "bool"
        },
        {
          "internalType": "bool",
          "name": "hasBatteryOperatingPermit",
          "type": "bool"
        },
        {
          "internalType": "bool",
          "name": "hasColumnCertificateOfConformity",
          "type": "bool"
        },
        {
          "internalType": "uint256",
          "name": "columnNumber",
          "type": "uint256"
        }
      ],
      "payable": false,
      "stateMutability": "view",
      "type": "function"
    },
    {
      "constant": true,
      "inputs": [
        {
          "internalType": "uint256",
          "name": "_numberOfColumns",
          "type": "uint256"
        }
      ],
      "name": "getNumberOfColumns",
      "outputs": [
        {
          "internalType": "uint256",
          "name": "",
          "type": "uint256"
        }
      ],
      "payable": false,
      "stateMutability": "pure",
      "type": "function"
    },
    {
      "constant": true,
      "inputs": [
        {
          "internalType": "bool",
          "name": "_doorsStatus",
          "type": "bool"
        }
      ],
      "name": "getDoorsStatus",
      "outputs": [
        {
          "internalType": "bool",
          "name": "",
          "type": "bool"
        }
      ],
      "payable": false,
      "stateMutability": "pure",
      "type": "function"
    },
    {
      "constant": true,
      "inputs": [
        {
          "internalType": "bool",
          "name": "_brakeStatus",
          "type": "bool"
        }
      ],
      "name": "getBrakeStatus",
      "outputs": [
        {
          "internalType": "bool",
          "name": "",
          "type": "bool"
        }
      ],
      "payable": false,
      "stateMutability": "pure",
      "type": "function"
    },
    {
      "constant": true,
      "inputs": [
        {
          "internalType": "bool",
          "name": "_cableStatus",
          "type": "bool"
        }
      ],
      "name": "getCableStatus",
      "outputs": [
        {
          "internalType": "bool",
          "name": "",
          "type": "bool"
        }
      ],
      "payable": false,
      "stateMutability": "pure",
      "type": "function"
    },
    {
      "constant": true,
      "inputs": [
        {
          "internalType": "bool",
          "name": "_batteryStatus",
          "type": "bool"
        }
      ],
      "name": "getBatteryStatus",
      "outputs": [
        {
          "internalType": "bool",
          "name": "",
          "type": "bool"
        }
      ],
      "payable": false,
      "stateMutability": "pure",
      "type": "function"
    },
    {
      "constant": false,
      "inputs": [
        {
          "internalType": "uint256",
          "name": "i",
          "type": "uint256"
        },
        {
          "internalType": "bool",
          "name": "_isDoorsTestPass",
          "type": "bool"
        },
        {
          "internalType": "bool",
          "name": "_isBrakesTestPass",
          "type": "bool"
        },
        {
          "internalType": "bool",
          "name": "_isCableTestPass",
          "type": "bool"
        },
        {
          "internalType": "bool",
          "name": "_hasBatteryOperatingPermit",
          "type": "bool"
        }
      ],
      "name": "generateCertificate",
      "outputs": [],
      "payable": false,
      "stateMutability": "nonpayable",
      "type": "function"
    },
    {
      "constant": false,
      "inputs": [],
      "name": "verifyColumn",
      "outputs": [],
      "payable": false,
      "stateMutability": "nonpayable",
      "type": "function"
    },
    {
      "constant": false,
      "inputs": [
        {
          "internalType": "uint256",
          "name": "_numberOfColumns",
          "type": "uint256"
        }
      ],
      "name": "isProductAproved",
      "outputs": [
        {
          "internalType": "bool",
          "name": "",
          "type": "bool"
        }
      ],
      "payable": false,
      "stateMutability": "nonpayable",
      "type": "function"
    }
  ],
  "bytecode": "0x608060405261001560005461004060201b60201c565b600a60006101000a81548160ff02191690831515021790555034801561003a57600080fd5b506100e2565b60008060009050828110156100db5760016003800160006101000a81548160ff021916908315150217905550600115156002828154811061007d57fe5b906000526020600020906002020160000160049054906101000a900460ff161515146100c15760006003800160006101000a81548160ff0219169083151502179055505b6003800160009054906101000a900460ff169150506100dd565b505b919050565b61073c806100f16000396000f3fe608060405234801561001057600080fd5b50600436106100935760003560e01c8063a16f047311610066578063a16f0473146101e7578063a1f35b04146101f1578063c03e32f21461024f578063c4e8a2f514610291578063fc9d4564146102d957610093565b806302ede6c21461009857806306436cef146100e05780639c3770f7146101265780639d35f4801461019f575b600080fd5b6100c6600480360360208110156100ae57600080fd5b81019080803515159060200190929190505050610321565b604051808215151515815260200191505060405180910390f35b61010c600480360360208110156100f657600080fd5b810190808035906020019092919050505061032b565b604051808215151515815260200191505060405180910390f35b6101526004803603602081101561013c57600080fd5b81019080803590602001909291905050506103cd565b604051808715151515815260200186151515158152602001851515151581526020018415151515815260200183151515158152602001828152602001965050505050505060405180910390f35b6101cd600480360360208110156101b557600080fd5b81019080803515159060200190929190505050610457565b604051808215151515815260200191505060405180910390f35b6101ef610461565b005b61024d600480360360a081101561020757600080fd5b810190808035906020019092919080351515906020019092919080351515906020019092919080351515906020019092919080351515906020019092919050505061066d565b005b61027b6004803603602081101561026557600080fd5b81019080803590602001909291905050506106e9565b6040518082815260200191505060405180910390f35b6102bf600480360360208110156102a757600080fd5b810190808035151590602001909291905050506106f3565b604051808215151515815260200191505060405180910390f35b610307600480360360208110156102ef57600080fd5b810190808035151590602001909291905050506106fd565b604051808215151515815260200191505060405180910390f35b6000819050919050565b60008060009050828110156103c65760016003800160006101000a81548160ff021916908315150217905550600115156002828154811061036857fe5b906000526020600020906002020160000160049054906101000a900460ff161515146103ac5760006003800160006101000a81548160ff0219169083151502179055505b6003800160009054906101000a900460ff169150506103c8565b505b919050565b600281815481106103da57fe5b90600052602060002090600202016000915090508060000160009054906101000a900460ff16908060000160019054906101000a900460ff16908060000160029054906101000a900460ff16908060000160039054906101000a900460ff16908060000160049054906101000a900460ff16908060010154905086565b6000819050919050565b60008090505b60005481101561066a57610489600160009054906101000a900460ff166106fd565b6002828154811061049657fe5b906000526020600020906002020160000160006101000a81548160ff0219169083151502179055506104d56001809054906101000a900460ff16610457565b600282815481106104e257fe5b906000526020600020906002020160000160016101000a81548160ff021916908315150217905550610522600160029054906101000a900460ff166106f3565b6002828154811061052f57fe5b906000526020600020906002020160000160026101000a81548160ff02191690831515021790555061056f600160039054906101000a900460ff16610321565b6002828154811061057c57fe5b906000526020600020906002020160000160036101000a81548160ff02191690831515021790555061065d81600283815481106105b557fe5b906000526020600020906002020160000160009054906101000a900460ff16600284815481106105e157fe5b906000526020600020906002020160000160019054906101000a900460ff166002858154811061060d57fe5b906000526020600020906002020160000160029054906101000a900460ff166002868154811061063957fe5b906000526020600020906002020160000160039054906101000a900460ff1661066d565b8080600101915050610467565b50565b60011515841515148015610685575060011515831515145b8015610695575060011515821515145b80156106a5575060011515811515145b156106e2576001600286815481106106b957fe5b906000526020600020906002020160000160046101000a81548160ff0219169083151502179055505b5050505050565b6000819050919050565b6000819050919050565b600081905091905056fea265627a7a72315820613bd79444e10466a7198856280c3d1a9053ec323489a688527ec00194d23d8a64736f6c63430005100032",
  "source": "pragma solidity >=0.4.22 <0.8.0;\n\ncontract SmartContract {\n\n    uint numberOfColumns;\n    bool doorsStatus;\n    bool brakeStatus;  \n    bool cableStatus; \n    bool batteryStatus;\n    //bool result;   \n\n    struct Column {\n        bool isDoorsTestPass;   \n        bool isBrakesTestPass;\n        bool isCableTestPass;\n        bool hasBatteryOperatingPermit;\n        bool hasColumnCertificateOfConformity;\n        uint columnNumber;         \n    } \n\n    Column[] public columnList;\n    \n    struct Product {\n        string client;\n        string name;\n        string component;\n        bool isAproved;\n        uint quantity;\n        uint64 price;\n        uint columnNumber;            \n    }\n    Product p;\n\n    function getNumberOfColumns(uint _numberOfColumns) public pure returns(uint){\n        return _numberOfColumns;\n    }\n    function getDoorsStatus(bool _doorsStatus) public pure returns(bool){\n        return _doorsStatus;\n    }\n    function getBrakeStatus(bool _brakeStatus) public pure returns(bool){\n        return _brakeStatus;\n    }\n    function getCableStatus(bool _cableStatus) public pure returns(bool){\n        return _cableStatus;\n    }\n    function getBatteryStatus(bool _batteryStatus) public pure returns(bool){\n        return _batteryStatus; \n    }\n\n    function generateCertificate(uint i, bool _isDoorsTestPass, bool _isBrakesTestPass, bool _isCableTestPass, bool _hasBatteryOperatingPermit) public {\n        if (_isDoorsTestPass == true && _isBrakesTestPass == true && _isCableTestPass == true && _hasBatteryOperatingPermit == true)\n        {\n             columnList[i].hasColumnCertificateOfConformity = true;\n        }\n    } \n\n    function verifyColumn() public\n    {\n        for (uint i = 0; i < numberOfColumns; i++)   {\n            columnList[i].isDoorsTestPass = getDoorsStatus(doorsStatus);\n            columnList[i].isBrakesTestPass = getBrakeStatus(brakeStatus);\n            columnList[i].isCableTestPass = getCableStatus(cableStatus);\n            columnList[i].hasBatteryOperatingPermit = getBatteryStatus(batteryStatus);\n            generateCertificate(i, columnList[i].isDoorsTestPass, columnList[i].isBrakesTestPass, columnList[i].isCableTestPass, columnList[i].hasBatteryOperatingPermit);\n        }\n    }\n\n    function isProductAproved(uint _numberOfColumns) public returns(bool)\n    {   \n        for (uint i = 0; i < _numberOfColumns; i++)   {\n            p.isAproved = true;\n            if (columnList[i].hasColumnCertificateOfConformity != true)\n            {\n                p.isAproved = false;\n            }\n            return p.isAproved;\n        }\n    }  \n\n    bool result = isProductAproved(numberOfColumns);   \n   \n    // //function to get the value of certificte list\n    // function getCertificate(uint initial) public view returns(uint) {\n    //     return certificate_of_conformity_list[initial];\n    // }    \n\n    // //function to get the number of certificates\n    // function getNumberOfCertificate() public view returns(uint) {\n    //     return certificate_of_conformity_list.length;\n    // }\n\n//https://medium.com/better-programming/how-to-test-ethereum-smart-contracts-35abc8fa199d\n//https://medium.com/@yangnana11/solidity-function-types-4ad4e5de6d56\n    \n}",
  "sourcePath": "/home/samuel/week12/Rocket_Elevators_Smart_Contracts/contracts/smartContract.sol",
  "compiler": {
    "name": "solc",
    "version": "0.5.16+commit.9c3226ce.Emscripten.clang"
  },
  "schemaVersion": "3.3.2",
  "updatedAt": "2020-12-09T14:38:28.014Z",
  "devdoc": {
    "methods": {}
  },
  "userdoc": {
    "methods": {}
  }
}