{
  "contractName": "SmartContract",
  "abi": [
    {
      "constant": true,
      "inputs": [
        {
          "internalType": "uint256",
          "name": "",
          "type": "uint256"
        }
      ],
      "name": "columnList",
      "outputs": [
        {
          "internalType": "bool",
          "name": "isDoorsTestPass",
          "type": "bool"
        },
        {
          "internalType": "bool",
          "name": "isBrakesTestPass",
          "type": "bool"
        },
        {
          "internalType": "bool",
          "name": "isCableTestPass",
          "type": "bool"
        },
        {
          "internalType": "bool",
          "name": "hasBatteryOperatingPermit",
          "type": "bool"
        },
        {
          "internalType": "bool",
          "name": "hasColumnCertificateOfConformity",
          "type": "bool"
        }
      ],
      "payable": false,
      "stateMutability": "view",
      "type": "function"
    },
    {
      "constant": true,
      "inputs": [],
      "name": "nbButtons",
      "outputs": [
        {
          "internalType": "uint256",
          "name": "",
          "type": "uint256"
        }
      ],
      "payable": false,
      "stateMutability": "view",
      "type": "function"
    },
    {
      "constant": true,
      "inputs": [],
      "name": "nbControllers",
      "outputs": [
        {
          "internalType": "uint256",
          "name": "",
          "type": "uint256"
        }
      ],
      "payable": false,
      "stateMutability": "view",
      "type": "function"
    },
    {
      "constant": true,
      "inputs": [],
      "name": "nbDisplays",
      "outputs": [
        {
          "internalType": "uint256",
          "name": "",
          "type": "uint256"
        }
      ],
      "payable": false,
      "stateMutability": "view",
      "type": "function"
    },
    {
      "constant": true,
      "inputs": [],
      "name": "nbDoors",
      "outputs": [
        {
          "internalType": "uint256",
          "name": "",
          "type": "uint256"
        }
      ],
      "payable": false,
      "stateMutability": "view",
      "type": "function"
    },
    {
      "constant": true,
      "inputs": [],
      "name": "nbElevators",
      "outputs": [
        {
          "internalType": "uint256",
          "name": "",
          "type": "uint256"
        }
      ],
      "payable": false,
      "stateMutability": "view",
      "type": "function"
    },
    {
      "constant": true,
      "inputs": [],
      "name": "testVariable1",
      "outputs": [
        {
          "internalType": "bool",
          "name": "",
          "type": "bool"
        }
      ],
      "payable": false,
      "stateMutability": "view",
      "type": "function"
    },
    {
      "constant": false,
      "inputs": [
        {
          "internalType": "uint256",
          "name": "_nbElevators",
          "type": "uint256"
        },
        {
          "internalType": "uint256",
          "name": "_nbControllers",
          "type": "uint256"
        },
        {
          "internalType": "uint256",
          "name": "_nbDoors",
          "type": "uint256"
        },
        {
          "internalType": "uint256",
          "name": "_nbButtons",
          "type": "uint256"
        },
        {
          "internalType": "uint256",
          "name": "_nbDisplays",
          "type": "uint256"
        }
      ],
      "name": "setOrder",
      "outputs": [],
      "payable": false,
      "stateMutability": "nonpayable",
      "type": "function"
    },
    {
      "constant": true,
      "inputs": [],
      "name": "getOrder",
      "outputs": [
        {
          "internalType": "uint256[5]",
          "name": "",
          "type": "uint256[5]"
        }
      ],
      "payable": false,
      "stateMutability": "view",
      "type": "function"
    },
    {
      "constant": true,
      "inputs": [
        {
          "internalType": "uint256",
          "name": "_numberOfColumns",
          "type": "uint256"
        }
      ],
      "name": "getNumberOfColumns",
      "outputs": [
        {
          "internalType": "uint256",
          "name": "",
          "type": "uint256"
        }
      ],
      "payable": false,
      "stateMutability": "pure",
      "type": "function"
    },
    {
      "constant": true,
      "inputs": [
        {
          "internalType": "bool",
          "name": "_doorsStatus",
          "type": "bool"
        }
      ],
      "name": "getDoorsStatus",
      "outputs": [
        {
          "internalType": "bool",
          "name": "",
          "type": "bool"
        }
      ],
      "payable": false,
      "stateMutability": "pure",
      "type": "function"
    },
    {
      "constant": true,
      "inputs": [
        {
          "internalType": "bool",
          "name": "_brakeStatus",
          "type": "bool"
        }
      ],
      "name": "getBrakeStatus",
      "outputs": [
        {
          "internalType": "bool",
          "name": "",
          "type": "bool"
        }
      ],
      "payable": false,
      "stateMutability": "pure",
      "type": "function"
    },
    {
      "constant": true,
      "inputs": [
        {
          "internalType": "bool",
          "name": "_cableStatus",
          "type": "bool"
        }
      ],
      "name": "getCableStatus",
      "outputs": [
        {
          "internalType": "bool",
          "name": "",
          "type": "bool"
        }
      ],
      "payable": false,
      "stateMutability": "pure",
      "type": "function"
    },
    {
      "constant": true,
      "inputs": [
        {
          "internalType": "bool",
          "name": "_batteryStatus",
          "type": "bool"
        }
      ],
      "name": "getBatteryStatus",
      "outputs": [
        {
          "internalType": "bool",
          "name": "",
          "type": "bool"
        }
      ],
      "payable": false,
      "stateMutability": "pure",
      "type": "function"
    },
    {
      "constant": true,
      "inputs": [
        {
          "internalType": "bool",
          "name": "_isDoorsTestPass",
          "type": "bool"
        },
        {
          "internalType": "bool",
          "name": "_isBrakesTestPass",
          "type": "bool"
        },
        {
          "internalType": "bool",
          "name": "_isCableTestPass",
          "type": "bool"
        },
        {
          "internalType": "bool",
          "name": "_hasBatteryOperatingPermit",
          "type": "bool"
        }
      ],
      "name": "generateCertificate",
      "outputs": [
        {
          "internalType": "bool",
          "name": "",
          "type": "bool"
        }
      ],
      "payable": false,
      "stateMutability": "pure",
      "type": "function"
    },
    {
      "constant": false,
      "inputs": [],
      "name": "verifyColumn",
      "outputs": [],
      "payable": false,
      "stateMutability": "nonpayable",
      "type": "function"
    },
    {
      "constant": false,
      "inputs": [
        {
          "internalType": "uint256",
          "name": "_numberOfColumns",
          "type": "uint256"
        }
      ],
      "name": "isProductAproved",
      "outputs": [
        {
          "internalType": "bool",
          "name": "",
          "type": "bool"
        }
      ],
      "payable": false,
      "stateMutability": "nonpayable",
      "type": "function"
    }
  ],
  "bytecode": "0x60806040526001600660006101000a81548160ff0219169083151502179055506000600860006101000a81548160ff02191690831515021790555034801561004657600080fd5b506109b3806100566000396000f3fe608060405234801561001057600080fd5b506004361061010b5760003560e01c806398a5bde0116100a2578063a73d9d7e11610071578063a73d9d7e146103be578063c03e32f2146103dc578063c4e8a2f51461041e578063d36dedd214610466578063fc9d4564146104ac5761010b565b806398a5bde0146102dc5780639c3770f7146102fa5780639d35f4801461036c578063a16f0473146103b45761010b565b8063227de7b8116100de578063227de7b814610212578063243ec8ea1461027e5780636c9b13971461029c578063958db55b146102be5761010b565b806302ede6c21461011057806306436cef146101585780631378b52e1461019e578063186de130146101f4575b600080fd5b61013e6004803603602081101561012657600080fd5b810190808035151590602001909291905050506104f4565b604051808215151515815260200191505060405180910390f35b6101846004803603602081101561016e57600080fd5b81019080803590602001909291905050506104fe565b604051808215151515815260200191505060405180910390f35b6101f2600480360360a08110156101b457600080fd5b81019080803590602001909291908035906020019092919080359060200190929190803590602001909291908035906020019092919050505061059d565b005b6101fc6105c7565b6040518082815260200191505060405180910390f35b6102646004803603608081101561022857600080fd5b810190808035151590602001909291908035151590602001909291908035151590602001909291908035151590602001909291905050506105cd565b604051808215151515815260200191505060405180910390f35b610286610622565b6040518082815260200191505060405180910390f35b6102a4610628565b604051808215151515815260200191505060405180910390f35b6102c661063b565b6040518082815260200191505060405180910390f35b6102e4610641565b6040518082815260200191505060405180910390f35b6103266004803603602081101561031057600080fd5b8101908080359060200190929190505050610647565b6040518086151515158152602001851515151581526020018415151515815260200183151515158152602001821515151581526020019550505050505060405180910390f35b61039a6004803603602081101561038257600080fd5b810190808035151590602001909291905050506106c7565b604051808215151515815260200191505060405180910390f35b6103bc6106d1565b005b6103c66108ee565b6040518082815260200191505060405180910390f35b610408600480360360208110156103f257600080fd5b81019080803590602001909291905050506108f4565b6040518082815260200191505060405180910390f35b61044c6004803603602081101561043457600080fd5b810190808035151590602001909291905050506108fe565b604051808215151515815260200191505060405180910390f35b61046e610908565b6040518082600560200280838360005b8381101561049957808201518184015260208101905061047e565b5050505090500191505060405180910390f35b6104da600480360360208110156104c257600080fd5b81019080803515159060200190929190505050610952565b604051808215151515815260200191505060405180910390f35b6000819050919050565b600080600090505b82811015610585576001600660046101000a81548160ff021916908315150217905550600115156007828154811061053a57fe5b9060005260206000200160000160049054906101000a900460ff16151514610578576000600660046101000a81548160ff0219169083151502179055505b8080600101915050610506565b50600660049054906101000a900460ff169050919050565b84600081905550836001819055508260028190555081600381905550806004819055505050505050565b60045481565b6000600115158515151480156105e7575060011515841515145b80156105f7575060011515831515145b8015610607575060011515821515145b15610615576001905061061a565b600090505b949350505050565b60005481565b600860009054906101000a900460ff1681565b60025481565b60015481565b6007818154811061065457fe5b906000526020600020016000915090508060000160009054906101000a900460ff16908060000160019054906101000a900460ff16908060000160029054906101000a900460ff16908060000160039054906101000a900460ff16908060000160049054906101000a900460ff16905085565b6000819050919050565b60008090505b6005548110156108eb576106f9600660009054906101000a900460ff16610952565b6007828154811061070657fe5b9060005260206000200160000160006101000a81548160ff021916908315150217905550610742600660019054906101000a900460ff166106c7565b6007828154811061074f57fe5b9060005260206000200160000160016101000a81548160ff02191690831515021790555061078b600660029054906101000a900460ff166108fe565b6007828154811061079857fe5b9060005260206000200160000160026101000a81548160ff0219169083151502179055506107d4600660039054906101000a900460ff166104f4565b600782815481106107e157fe5b9060005260206000200160000160036101000a81548160ff0219169083151502179055506108ad6007828154811061081557fe5b9060005260206000200160000160009054906101000a900460ff166007838154811061083d57fe5b9060005260206000200160000160019054906101000a900460ff166007848154811061086557fe5b9060005260206000200160000160029054906101000a900460ff166007858154811061088d57fe5b9060005260206000200160000160039054906101000a900460ff166105cd565b600782815481106108ba57fe5b9060005260206000200160000160046101000a81548160ff02191690831515021790555080806001019150506106d7565b50565b60035481565b6000819050919050565b6000819050919050565b61091061095c565b61091861095c565b6040518060a00160405280600054815260200160015481526020016002548152602001600354815260200160045481525090508091505090565b6000819050919050565b6040518060a0016040528060059060208202803883398082019150509050509056fea265627a7a723158201280b514eb8d3323b4d426c003682404cfab81096a23619a47d281c330f1453d64736f6c63430005100032",
  "source": "pragma solidity >=0.4.22 <0.8.0;\n//pragma experimental ABIEncoderV2;\n\ncontract SmartContract {\n\n    \n     // define needs\n    uint256 public nbElevators;\n    uint256 public nbControllers;\n    uint256 public nbDoors;\n    uint256 public nbButtons;\n    uint256 public nbDisplays;\n    function setOrder(\n        uint256 _nbElevators,\n        uint256 _nbControllers,\n        uint256 _nbDoors,\n        uint256 _nbButtons,\n        uint256 _nbDisplays\n    ) public {\n        nbElevators = _nbElevators;\n        nbControllers = _nbControllers;\n        nbDoors = _nbDoors;\n        nbButtons = _nbButtons;\n        nbDisplays = _nbDisplays;\n    }\n    function getOrder() public view returns (uint256[5] memory) {\n        uint256[5] memory myOrder = [\n            nbElevators,\n            nbControllers,\n            nbDoors,\n            nbButtons,\n            nbDisplays\n        ];\n        return myOrder;\n    }\n    uint numberOfColumns;\n    bool doorsStatus = true;\n    bool brakeStatus;  \n    bool cableStatus; \n    bool batteryStatus; \n    bool ProductAproved;\n    struct Column {\n        bool isDoorsTestPass;   \n        bool isBrakesTestPass;\n        bool isCableTestPass;\n        bool hasBatteryOperatingPermit;\n        bool hasColumnCertificateOfConformity;                \n    }\n    Column[] public columnList;   \n\n    bool public testVariable1 = false;\n    // struct Product {\n    //     string client;\n    //     string name;\n    //     string component;\n    //     bool isAproved;\n    //     uint quantity;\n    //     uint64 price;\n    //     uint columnNumber;            \n    // }    \n    // Product p;\n    function getNumberOfColumns(uint _numberOfColumns) public pure returns(uint){\n        return _numberOfColumns;\n    }\n    function getDoorsStatus(bool _doorsStatus) public pure returns(bool){\n        return _doorsStatus;\n    }\n    function getBrakeStatus(bool _brakeStatus) public pure returns(bool){\n        return _brakeStatus;\n    }\n    function getCableStatus(bool _cableStatus) public pure returns(bool){\n        return _cableStatus;\n    }\n    function getBatteryStatus(bool _batteryStatus) public pure returns(bool){\n        return _batteryStatus; \n    }\n    function generateCertificate( bool _isDoorsTestPass, bool _isBrakesTestPass, bool _isCableTestPass, bool _hasBatteryOperatingPermit) public pure returns(bool)  {\n        if (_isDoorsTestPass == true && _isBrakesTestPass == true && _isCableTestPass == true && _hasBatteryOperatingPermit == true)\n        {\n            return true;\n        }   else\n        {\n            return false;\n        }\n    } \n    function verifyColumn() public\n    {  \n        //Comment this part for testing \n        for (uint i = 0; i < numberOfColumns; i++)   {\n            columnList[i].isDoorsTestPass = getDoorsStatus(doorsStatus);\n            columnList[i].isBrakesTestPass = getBrakeStatus(brakeStatus);\n            columnList[i].isCableTestPass = getCableStatus(cableStatus);\n            columnList[i].hasBatteryOperatingPermit = getBatteryStatus(batteryStatus);\n            columnList[i].hasColumnCertificateOfConformity = generateCertificate(columnList[i].isDoorsTestPass, columnList[i].isBrakesTestPass, columnList[i].isCableTestPass, columnList[i].hasBatteryOperatingPermit);\n        }\n        // Use this part to test the function (Leave uncommented for testing only.)\n        //testVariable1 = getDoorsStatus(doorsStatus);               \n        // Use this part to test the function        \n    } \n    \n    function isProductAproved(uint _numberOfColumns) public returns(bool)\n    {         \n        for (uint i = 0; i < _numberOfColumns; i++)   {\n            //p.isAproved = true;\n            ProductAproved = true;\n            if (columnList[i].hasColumnCertificateOfConformity != true)\n            {\n                //p.isAproved = false;\n                ProductAproved = false;\n            }            \n        }\n        //return p.isAproved;\n        return ProductAproved;\n    }  \n   \n}",
  "sourcePath": "/Users/frimina/Desktop/week12/Rocket_Elevators_Smart_Contracts/contracts/smartContract.sol",
  "compiler": {
    "name": "solc",
    "version": "0.5.16+commit.9c3226ce.Emscripten.clang"
  },
  "schemaVersion": "3.3.2",
  "updatedAt": "2020-12-11T19:54:50.052Z",
  "devdoc": {
    "methods": {}
  },
  "userdoc": {
    "methods": {}
  }
}